{
  "contractName": "MainTasks",
  "abi": [
    {
      "anonymous": false,
      "inputs": [],
      "name": "LogTasksUpdated",
      "type": "event"
    },
    {
      "anonymous": false,
      "inputs": [
        {
          "indexed": false,
          "internalType": "address",
          "name": "account",
          "type": "address"
        }
      ],
      "name": "Paused",
      "type": "event"
    },
    {
      "anonymous": false,
      "inputs": [
        {
          "indexed": false,
          "internalType": "address",
          "name": "account",
          "type": "address"
        }
      ],
      "name": "Unpaused",
      "type": "event"
    },
    {
      "stateMutability": "payable",
      "type": "fallback"
    },
    {
      "inputs": [],
      "name": "PUNISHMENT_TIME",
      "outputs": [
        {
          "internalType": "uint256",
          "name": "",
          "type": "uint256"
        }
      ],
      "stateMutability": "view",
      "type": "function"
    },
    {
      "inputs": [],
      "name": "getPrize",
      "outputs": [
        {
          "internalType": "uint256",
          "name": "",
          "type": "uint256"
        }
      ],
      "stateMutability": "view",
      "type": "function"
    },
    {
      "inputs": [],
      "name": "paused",
      "outputs": [
        {
          "internalType": "bool",
          "name": "",
          "type": "bool"
        }
      ],
      "stateMutability": "view",
      "type": "function"
    },
    {
      "inputs": [
        {
          "internalType": "address",
          "name": "",
          "type": "address"
        }
      ],
      "name": "prizes",
      "outputs": [
        {
          "internalType": "uint256",
          "name": "",
          "type": "uint256"
        }
      ],
      "stateMutability": "view",
      "type": "function"
    },
    {
      "inputs": [
        {
          "internalType": "address",
          "name": "",
          "type": "address"
        },
        {
          "internalType": "uint256",
          "name": "",
          "type": "uint256"
        }
      ],
      "name": "tasks",
      "outputs": [
        {
          "internalType": "string",
          "name": "description",
          "type": "string"
        },
        {
          "internalType": "uint256",
          "name": "createdAt",
          "type": "uint256"
        },
        {
          "internalType": "uint256",
          "name": "value",
          "type": "uint256"
        },
        {
          "internalType": "uint256",
          "name": "dueDate",
          "type": "uint256"
        },
        {
          "internalType": "bool",
          "name": "completed",
          "type": "bool"
        },
        {
          "internalType": "bool",
          "name": "cleared",
          "type": "bool"
        }
      ],
      "stateMutability": "view",
      "type": "function"
    },
    {
      "inputs": [
        {
          "internalType": "uint256",
          "name": "withdrawAmount",
          "type": "uint256"
        }
      ],
      "name": "withdrawPrize",
      "outputs": [
        {
          "internalType": "uint256",
          "name": "",
          "type": "uint256"
        }
      ],
      "stateMutability": "nonpayable",
      "type": "function"
    },
    {
      "stateMutability": "payable",
      "type": "receive"
    }
  ],
  "bytecode": "0x608060405234801561001057600080fd5b5060016000819055506000600260006101000a81548160ff02191690831515021790555061075a806100436000396000f3fe6080604052600436106100595760003560e01c80635c975abb146100685780637149d2e4146100935780638ced8132146100d5578063b35d11bf14610100578063c20eec7b1461013d578063c34f6b0d1461017a57610063565b3661006357600080fd5b600080fd5b34801561007457600080fd5b5061007d6101a5565b60405161008a91906104ec565b60405180910390f35b34801561009f57600080fd5b506100ba60048036038101906100b59190610430565b6101bc565b6040516100cc96959493929190610507565b60405180910390f35b3480156100e157600080fd5b506100ea6102b7565b6040516100f7919061056f565b60405180910390f35b34801561010c57600080fd5b5061012760048036038101906101229190610407565b6102bc565b604051610134919061056f565b60405180910390f35b34801561014957600080fd5b50610164600480360381019061015f919061046c565b6102d4565b604051610171919061056f565b60405180910390f35b34801561018657600080fd5b5061018f610396565b60405161019c919061056f565b60405180910390f35b6000600260009054906101000a900460ff16905090565b600360205281600052604060002081815481106101d857600080fd5b9060005260206000209060050201600091509150508060000180546101fc90610655565b80601f016020809104026020016040519081016040528092919081815260200182805461022890610655565b80156102755780601f1061024a57610100808354040283529160200191610275565b820191906000526020600020905b81548152906001019060200180831161025857829003601f168201915b5050505050908060010154908060020154908060030154908060040160009054906101000a900460ff16908060040160019054906101000a900460ff16905086565b603c81565b60016020528060005260406000206000915090505481565b6000816102df610396565b10156102ea57600080fd5b81600160003373ffffffffffffffffffffffffffffffffffffffff1673ffffffffffffffffffffffffffffffffffffffff168152602001908152602001600020600082825461033991906105a6565b925050819055503373ffffffffffffffffffffffffffffffffffffffff166108fc839081150290604051600060405180830381858888f19350505050158015610386573d6000803e3d6000fd5b5061038f610396565b9050919050565b6000600160003373ffffffffffffffffffffffffffffffffffffffff1673ffffffffffffffffffffffffffffffffffffffff16815260200190815260200160002054905090565b6000813590506103ec816106f6565b92915050565b6000813590506104018161070d565b92915050565b60006020828403121561041957600080fd5b6000610427848285016103dd565b91505092915050565b6000806040838503121561044357600080fd5b6000610451858286016103dd565b9250506020610462858286016103f2565b9150509250929050565b60006020828403121561047e57600080fd5b600061048c848285016103f2565b91505092915050565b61049e816105ec565b82525050565b60006104af8261058a565b6104b98185610595565b93506104c9818560208601610622565b6104d2816106e5565b840191505092915050565b6104e681610618565b82525050565b60006020820190506105016000830184610495565b92915050565b600060c082019050818103600083015261052181896104a4565b905061053060208301886104dd565b61053d60408301876104dd565b61054a60608301866104dd565b6105576080830185610495565b61056460a0830184610495565b979650505050505050565b600060208201905061058460008301846104dd565b92915050565b600081519050919050565b600082825260208201905092915050565b60006105b182610618565b91506105bc83610618565b9250828210156105cf576105ce610687565b5b828203905092915050565b60006105e5826105f8565b9050919050565b60008115159050919050565b600073ffffffffffffffffffffffffffffffffffffffff82169050919050565b6000819050919050565b60005b83811015610640578082015181840152602081019050610625565b8381111561064f576000848401525b50505050565b6000600282049050600182168061066d57607f821691505b60208210811415610681576106806106b6565b5b50919050565b7f4e487b7100000000000000000000000000000000000000000000000000000000600052601160045260246000fd5b7f4e487b7100000000000000000000000000000000000000000000000000000000600052602260045260246000fd5b6000601f19601f8301169050919050565b6106ff816105da565b811461070a57600080fd5b50565b61071681610618565b811461072157600080fd5b5056fea2646970667358221220650fd192b0240d3c9645789fdc3d7fc4312375fefeb22e389c2ed4e08778a19164736f6c63430008000033",
  "immutableReferences": {},
  "source": "// SPDX-License-Identifier: MIT\npragma solidity >=0.8.0 <0.9.0;\n\nimport \"./Accounting.sol\";\nimport \"./Rewards.sol\";\nimport \"@openzeppelin/contracts/security/Pausable.sol\";\n\ncontract MainTasks is Accounting, Rewards, Pausable{\n  /*\n   * Constant variables\n   */\n  \n  // Punishment period in seconds\n  uint constant public PUNISHMENT_TIME = 1 minutes;\n\n\n  /*\n   * State variables\n   */\n  \n  // Task structure\n  struct Task {\n    string description;\n    uint createdAt;\n    uint value;\n    uint dueDate;\n    bool completed;\n    bool cleared;\n  }\n\n  // Tasks\n  mapping (address => Task[]) public tasks;\n\n\n  /* \n   * Events\n   */\n\n  // Tasks updated event\n  event LogTasksUpdated ();\n\n\n  /* \n   * Modifiers\n   */\n\n  // Due date should be after current block timestamp\n  // Zero means unset due date\n  modifier validDueDate (uint _dueDate) {\n    require(_dueDate == 0 || _dueDate > block.timestamp);\n    _;\n  }\n\n  // If task has not any prize locked in it\n  modifier notPrized (uint _id) {\n    require(!hasPrize(_id));\n    _;\n  }\n\n  // If task is completed\n  modifier completed (uint _id) {\n    require(getTask(_id).completed);\n    _;\n  }\n\n  // If a task is not completed\n  modifier incomplete (uint _id) {\n    require(!getTask(_id).completed);\n    _;\n  }\n\n  // If a due date is set for task\n  modifier dueIsSet (uint _id) {\n    require(getTask(_id).dueDate != 0);\n    _;\n  }\n\n  /* \n   * Functions\n   */\n\n  // Add task\n  function _add(string memory _description, uint _dueDate)\n    internal validDueDate(_dueDate)\n  {\n    // Create a task instance\n    Task memory task = Task({\n      // Input parameters\n      description: _description,\n      dueDate: _dueDate,\n      // Autofill task creation timestamp\n      createdAt: block.timestamp,\n      // Default values\n      value: 0,\n      completed: false,\n      cleared: true\n    });\n\n    // Push created task to user's tasks\n    tasks[msg.sender].push(task);\n\n    // Log tasks are updated\n    emit LogTasksUpdated();\n  }\n\n\n  // Update task\n  function _update(\n    uint _id,\n    string memory _description,\n    uint _dueDate\n  ) internal notPrized(_id) {\n    Task memory task = tasks[msg.sender][_id];\n    task.description = _description;\n    task.dueDate = _dueDate;\n    replace(_id, task);\n  }\n\n  // Remove task\n  // Current implemetation do NOT preserve tasks order\n  function _remove(uint _id)\n   internal\n   notPrized(_id)\n  {\n    uint userTasksLength = tasks[msg.sender].length;\n\n    require(_id < userTasksLength);\n\n    tasks[msg.sender][_id] = tasks[msg.sender][userTasksLength - 1];\n    tasks[msg.sender].pop();\n\n    emit LogTasksUpdated();\n  }\n  \n\n  // Set complete\n  function _setComplete(uint _id)\n    internal\n    incomplete(_id)\n  {\n    require(!isExpired(_id), \"due date is expired\");\n    require(!isUnderPunishment(_id), \"task is under punishment\");\n    Task memory task = getTask(_id);\n\n    task.completed = true;\n    if(!task.cleared) {\n      task.cleared = true;\n      replace(_id, task);\n      addPrize(msg.sender, task.value);\n    } else {\n      replace(_id, task);\n    }\n  }\n\n  // Set incomplete\n  function _setIncomplete(uint _id)\n    internal\n    completed(_id)\n    notPrized(_id)\n  {\n    Task memory task = getTask(_id);\n    task.completed = false;\n    replace(_id, task);\n  }\n\n  // Has prize locked in it\n  function hasPrize(uint _id) private view returns (bool) {\n    Task memory task = getTask(_id);\n    if (task.value == 0)\n      return false;\n    return !task.cleared;\n  }\n\n  // Clear a task\n  function _clear(uint _id) internal {\n    Task memory task = getTask(_id);\n\n    require(hasPrize(_id), \"Don't have a prize!\");\n    require(!isUnderPunishment(_id), \"Task is under punishment!\");\n    require(isPunishmentOver(_id), \"Punishment is not over\");\n    task.cleared = true;\n    payUser(task.value);\n    replace(_id, task);\n  }\n\n  // Set prize\n  function _setPrize(uint _id)\n    internal\n    dueIsSet(_id)\n    incomplete(_id)\n    whenNotPaused()\n  {\n    Task memory task = getTask(_id);\n    require(task.value == 0);\n    require(!isExpired(_id));\n    require(task.cleared);\n    require(msg.value != 0);\n\n    task.value = msg.value;\n    task.cleared = false;\n\n    replace(_id, task);\n  }\n\n  // Is in punishment period\n  function isUnderPunishment(uint _id) private view returns (bool) {\n    if (!hasPrize(_id)) {\n      return false;\n    }\n    if (!isExpired(_id)) {\n      return false;\n    }\n    return !isPunishmentOver(_id);\n  }\n\n  // Is punishment period over\n  function isPunishmentOver(uint _id) private view returns (bool){\n    Task memory task = getTask(_id);\n    if (block.timestamp > task.dueDate + PUNISHMENT_TIME) {\n      return true;\n    }\n    return false;\n  }\n\n  // Is task overdue\n  function isExpired(uint _id) private view returns (bool) {\n    Task memory task = getTask(_id);\n    if (task.dueDate == 0) {\n      return false;\n    }\n    return (task.dueDate < block.timestamp);\n  }\n\n  // Get current user tasks\n  function _getTasks() internal view returns(Task[] memory) {\n    return tasks[msg.sender];\n  }\n\n  // Get task\n  function getTask(uint _id) private view returns(Task memory) {\n    require(tasks[msg.sender].length>_id);\n    return tasks[msg.sender][_id];\n  }\n\n\n  // Replace task\n  function replace(uint _id, Task memory _task) private {\n    tasks[msg.sender][_id] = _task;\n\n    emit LogTasksUpdated();\n  }\n\n}",
  "sourcePath": "/Users/afolabi/blockchaindev/blockchain-developer-bootcamp-final-project/contracts/MainTasks.sol",
  "compiler": {
    "name": "solc",
    "version": "0.8.0+commit.c7dfd78e.Emscripten.clang"
  },
  "schemaVersion": "3.4.4",
  "updatedAt": "2022-03-13T19:35:50.650Z",
  "devdoc": {
    "kind": "dev",
    "methods": {
      "paused()": {
        "details": "Returns true if the contract is paused, and false otherwise."
      }
    },
    "version": 1
  },
  "userdoc": {
    "kind": "user",
    "methods": {},
    "version": 1
  }
}