{
  "contractName": "MuiltSigWithThreshold",
  "abi": [
    {
      "inputs": [],
      "stateMutability": "nonpayable",
      "type": "constructor"
    },
    {
      "anonymous": false,
      "inputs": [
        {
          "indexed": false,
          "internalType": "address",
          "name": "_sender",
          "type": "address"
        },
        {
          "indexed": false,
          "internalType": "string",
          "name": "_txName",
          "type": "string"
        },
        {
          "indexed": false,
          "internalType": "uint256",
          "name": "_requiredThreshold",
          "type": "uint256"
        }
      ],
      "name": "NewTypeOfTransactionAdded",
      "type": "event"
    },
    {
      "anonymous": false,
      "inputs": [
        {
          "indexed": true,
          "internalType": "bytes32",
          "name": "role",
          "type": "bytes32"
        },
        {
          "indexed": true,
          "internalType": "bytes32",
          "name": "previousAdminRole",
          "type": "bytes32"
        },
        {
          "indexed": true,
          "internalType": "bytes32",
          "name": "newAdminRole",
          "type": "bytes32"
        }
      ],
      "name": "RoleAdminChanged",
      "type": "event"
    },
    {
      "anonymous": false,
      "inputs": [
        {
          "indexed": true,
          "internalType": "bytes32",
          "name": "role",
          "type": "bytes32"
        },
        {
          "indexed": true,
          "internalType": "address",
          "name": "account",
          "type": "address"
        },
        {
          "indexed": true,
          "internalType": "address",
          "name": "sender",
          "type": "address"
        }
      ],
      "name": "RoleGranted",
      "type": "event"
    },
    {
      "anonymous": false,
      "inputs": [
        {
          "indexed": true,
          "internalType": "bytes32",
          "name": "role",
          "type": "bytes32"
        },
        {
          "indexed": true,
          "internalType": "address",
          "name": "account",
          "type": "address"
        },
        {
          "indexed": true,
          "internalType": "address",
          "name": "sender",
          "type": "address"
        }
      ],
      "name": "RoleRevoked",
      "type": "event"
    },
    {
      "anonymous": false,
      "inputs": [
        {
          "indexed": false,
          "internalType": "address",
          "name": "_signerAdd",
          "type": "address"
        },
        {
          "indexed": false,
          "internalType": "uint256",
          "name": "_signerWeight",
          "type": "uint256"
        }
      ],
      "name": "SignerAdded",
      "type": "event"
    },
    {
      "anonymous": false,
      "inputs": [
        {
          "indexed": false,
          "internalType": "address",
          "name": "_adder",
          "type": "address"
        },
        {
          "indexed": false,
          "internalType": "uint256",
          "name": "_amount",
          "type": "uint256"
        },
        {
          "indexed": false,
          "internalType": "address",
          "name": "_to",
          "type": "address"
        }
      ],
      "name": "TransactionAdded",
      "type": "event"
    },
    {
      "anonymous": false,
      "inputs": [
        {
          "indexed": false,
          "internalType": "address",
          "name": "_signer",
          "type": "address"
        },
        {
          "indexed": false,
          "internalType": "uint256",
          "name": "_txIndex",
          "type": "uint256"
        },
        {
          "indexed": false,
          "internalType": "uint256",
          "name": "_signerWeight",
          "type": "uint256"
        },
        {
          "indexed": false,
          "internalType": "uint256",
          "name": "_requiredThreshold",
          "type": "uint256"
        }
      ],
      "name": "TransactionSigned",
      "type": "event"
    },
    {
      "anonymous": false,
      "inputs": [
        {
          "indexed": false,
          "internalType": "address",
          "name": "_sender",
          "type": "address"
        },
        {
          "indexed": false,
          "internalType": "uint256",
          "name": "_amt",
          "type": "uint256"
        },
        {
          "indexed": false,
          "internalType": "address",
          "name": "_receiver",
          "type": "address"
        }
      ],
      "name": "TransactionSubmitted",
      "type": "event"
    },
    {
      "anonymous": false,
      "inputs": [
        {
          "indexed": false,
          "internalType": "address",
          "name": "_sender",
          "type": "address"
        },
        {
          "indexed": false,
          "internalType": "uint256",
          "name": "_weightRemove",
          "type": "uint256"
        }
      ],
      "name": "revockSignature",
      "type": "event"
    },
    {
      "inputs": [],
      "name": "DEFAULT_ADMIN_ROLE",
      "outputs": [
        {
          "internalType": "bytes32",
          "name": "",
          "type": "bytes32"
        }
      ],
      "stateMutability": "view",
      "type": "function"
    },
    {
      "inputs": [],
      "name": "OWNER",
      "outputs": [
        {
          "internalType": "bytes32",
          "name": "",
          "type": "bytes32"
        }
      ],
      "stateMutability": "view",
      "type": "function"
    },
    {
      "inputs": [],
      "name": "SIGNER",
      "outputs": [
        {
          "internalType": "bytes32",
          "name": "",
          "type": "bytes32"
        }
      ],
      "stateMutability": "view",
      "type": "function"
    },
    {
      "inputs": [
        {
          "internalType": "bytes32",
          "name": "role",
          "type": "bytes32"
        }
      ],
      "name": "getRoleAdmin",
      "outputs": [
        {
          "internalType": "bytes32",
          "name": "",
          "type": "bytes32"
        }
      ],
      "stateMutability": "view",
      "type": "function"
    },
    {
      "inputs": [
        {
          "internalType": "bytes32",
          "name": "role",
          "type": "bytes32"
        },
        {
          "internalType": "address",
          "name": "account",
          "type": "address"
        }
      ],
      "name": "grantRole",
      "outputs": [],
      "stateMutability": "nonpayable",
      "type": "function"
    },
    {
      "inputs": [
        {
          "internalType": "bytes32",
          "name": "role",
          "type": "bytes32"
        },
        {
          "internalType": "address",
          "name": "account",
          "type": "address"
        }
      ],
      "name": "hasRole",
      "outputs": [
        {
          "internalType": "bool",
          "name": "",
          "type": "bool"
        }
      ],
      "stateMutability": "view",
      "type": "function"
    },
    {
      "inputs": [
        {
          "internalType": "bytes32",
          "name": "role",
          "type": "bytes32"
        },
        {
          "internalType": "address",
          "name": "account",
          "type": "address"
        }
      ],
      "name": "renounceRole",
      "outputs": [],
      "stateMutability": "nonpayable",
      "type": "function"
    },
    {
      "inputs": [
        {
          "internalType": "bytes32",
          "name": "role",
          "type": "bytes32"
        },
        {
          "internalType": "address",
          "name": "account",
          "type": "address"
        }
      ],
      "name": "revokeRole",
      "outputs": [],
      "stateMutability": "nonpayable",
      "type": "function"
    },
    {
      "inputs": [],
      "name": "signerCounter",
      "outputs": [
        {
          "internalType": "uint256",
          "name": "",
          "type": "uint256"
        }
      ],
      "stateMutability": "view",
      "type": "function"
    },
    {
      "inputs": [
        {
          "internalType": "bytes4",
          "name": "interfaceId",
          "type": "bytes4"
        }
      ],
      "name": "supportsInterface",
      "outputs": [
        {
          "internalType": "bool",
          "name": "",
          "type": "bool"
        }
      ],
      "stateMutability": "view",
      "type": "function"
    },
    {
      "inputs": [
        {
          "internalType": "string",
          "name": "",
          "type": "string"
        }
      ],
      "name": "transactionTypeList",
      "outputs": [
        {
          "internalType": "uint256",
          "name": "",
          "type": "uint256"
        }
      ],
      "stateMutability": "view",
      "type": "function"
    },
    {
      "inputs": [],
      "name": "txCounter",
      "outputs": [
        {
          "internalType": "uint256",
          "name": "",
          "type": "uint256"
        }
      ],
      "stateMutability": "view",
      "type": "function"
    },
    {
      "stateMutability": "payable",
      "type": "receive"
    },
    {
      "inputs": [
        {
          "internalType": "address",
          "name": "_to",
          "type": "address"
        },
        {
          "internalType": "uint256",
          "name": "_amt",
          "type": "uint256"
        },
        {
          "internalType": "string",
          "name": "_transactionType",
          "type": "string"
        }
      ],
      "name": "addTransaction",
      "outputs": [],
      "stateMutability": "nonpayable",
      "type": "function"
    },
    {
      "inputs": [
        {
          "internalType": "string",
          "name": "_txName",
          "type": "string"
        }
      ],
      "name": "getTxWeight",
      "outputs": [
        {
          "internalType": "uint256",
          "name": "",
          "type": "uint256"
        }
      ],
      "stateMutability": "view",
      "type": "function"
    },
    {
      "inputs": [],
      "name": "getAllTranactions",
      "outputs": [
        {
          "components": [
            {
              "internalType": "address",
              "name": "to",
              "type": "address"
            },
            {
              "internalType": "uint256",
              "name": "amount",
              "type": "uint256"
            },
            {
              "internalType": "string",
              "name": "transactionType",
              "type": "string"
            },
            {
              "internalType": "bool",
              "name": "executed",
              "type": "bool"
            },
            {
              "internalType": "uint256",
              "name": "totalNumbersOfSig",
              "type": "uint256"
            }
          ],
          "internalType": "struct MuiltSigWithThreshold.TransactionObj[]",
          "name": "",
          "type": "tuple[]"
        }
      ],
      "stateMutability": "view",
      "type": "function"
    },
    {
      "inputs": [
        {
          "internalType": "uint256",
          "name": "_txID",
          "type": "uint256"
        }
      ],
      "name": "getTxByID",
      "outputs": [
        {
          "components": [
            {
              "internalType": "address",
              "name": "to",
              "type": "address"
            },
            {
              "internalType": "uint256",
              "name": "amount",
              "type": "uint256"
            },
            {
              "internalType": "string",
              "name": "transactionType",
              "type": "string"
            },
            {
              "internalType": "bool",
              "name": "executed",
              "type": "bool"
            },
            {
              "internalType": "uint256",
              "name": "totalNumbersOfSig",
              "type": "uint256"
            }
          ],
          "internalType": "struct MuiltSigWithThreshold.TransactionObj",
          "name": "",
          "type": "tuple"
        }
      ],
      "stateMutability": "view",
      "type": "function"
    },
    {
      "inputs": [
        {
          "internalType": "string",
          "name": "_name",
          "type": "string"
        },
        {
          "internalType": "uint256",
          "name": "_weight",
          "type": "uint256"
        }
      ],
      "name": "addTxWeight",
      "outputs": [],
      "stateMutability": "nonpayable",
      "type": "function"
    },
    {
      "inputs": [
        {
          "internalType": "uint256",
          "name": "_txIndex",
          "type": "uint256"
        }
      ],
      "name": "revockSignerSig",
      "outputs": [],
      "stateMutability": "nonpayable",
      "type": "function"
    },
    {
      "inputs": [
        {
          "internalType": "address",
          "name": "_signerAdd",
          "type": "address"
        },
        {
          "internalType": "uint256",
          "name": "_weight",
          "type": "uint256"
        }
      ],
      "name": "addSignerWithWeight",
      "outputs": [],
      "stateMutability": "nonpayable",
      "type": "function"
    },
    {
      "inputs": [
        {
          "internalType": "address",
          "name": "_address",
          "type": "address"
        }
      ],
      "name": "getSignerByAddress",
      "outputs": [
        {
          "components": [
            {
              "internalType": "address",
              "name": "id",
              "type": "address"
            },
            {
              "internalType": "uint256",
              "name": "sigWeight",
              "type": "uint256"
            }
          ],
          "internalType": "struct MuiltSigWithThreshold.SignerList",
          "name": "",
          "type": "tuple"
        }
      ],
      "stateMutability": "view",
      "type": "function"
    },
    {
      "inputs": [
        {
          "internalType": "uint256",
          "name": "_txId",
          "type": "uint256"
        }
      ],
      "name": "signTransaction",
      "outputs": [],
      "stateMutability": "nonpayable",
      "type": "function"
    },
    {
      "inputs": [
        {
          "internalType": "uint256",
          "name": "_txIndex",
          "type": "uint256"
        }
      ],
      "name": "submitTransaction",
      "outputs": [],
      "stateMutability": "nonpayable",
      "type": "function"
    }
  ],
  "bytecode": "0x60806040523480156200001157600080fd5b50620000447fb19546dff01e856fb3f010c267a7b1c60363cf8a4664e21cc89c26224620214e33620000c660201b60201c565b60006001604051620000569062000305565b908152602001604051809103902081905550605060016040516200007a906200031c565b908152602001604051809103902081905550603c60016040516200009e9062000333565b9081526020016040518091039020819055506000600781905550600060068190555062000355565b620000d88282620000dc60201b60201c565b5050565b620000ee8282620001cd60201b60201c565b620001c957600160008084815260200190815260200160002060000160008373ffffffffffffffffffffffffffffffffffffffff1673ffffffffffffffffffffffffffffffffffffffff16815260200190815260200160002060006101000a81548160ff0219169083151502179055506200016e6200023760201b60201c565b73ffffffffffffffffffffffffffffffffffffffff168173ffffffffffffffffffffffffffffffffffffffff16837f2f8788117e7eff1d82e926ec794901d17c78024a50270940304540a733656f0d60405160405180910390a45b5050565b600080600084815260200190815260200160002060000160008373ffffffffffffffffffffffffffffffffffffffff1673ffffffffffffffffffffffffffffffffffffffff16815260200190815260200160002060009054906101000a900460ff16905092915050565b600033905090565b60006200024e6007836200034a565b91507f6465706f736974000000000000000000000000000000000000000000000000006000830152600782019050919050565b600062000290600a836200034a565b91507f7769746864726177616c000000000000000000000000000000000000000000006000830152600a82019050919050565b6000620002d26008836200034a565b91507f7472616e736665720000000000000000000000000000000000000000000000006000830152600882019050919050565b600062000312826200023f565b9150819050919050565b6000620003298262000281565b9150819050919050565b60006200034082620002c3565b9150819050919050565b600081905092915050565b612e5880620003656000396000f3fe6080604052600436106101395760003560e01c80635ea8240c116100ab578063a613907b1161006f578063a613907b14610443578063beed14201461046e578063c34a0ead146104ab578063c50bafcc146104d4578063d547741f14610511578063ffa256f11461053a57610140565b80635ea8240c1461035c57806365fea91f1461038557806374f079b8146103b057806391d14854146103db578063a217fddf1461041857610140565b806323bb5f13116100fd57806323bb5f131461023c578063248a9ca3146102795780632f2ff15d146102b657806336568abe146102df578063582abd12146103085780635d9ec2101461033357610140565b806301ffc9a714610145578063090c85a4146101825780630a09190e146101ab578063117803e3146101e85780631277536a1461021357610140565b3661014057005b600080fd5b34801561015157600080fd5b5061016c60048036038101906101679190611fb7565b610563565b6040516101799190612832565b60405180910390f35b34801561018e57600080fd5b506101a960048036038101906101a49190611eeb565b6105dd565b005b3480156101b757600080fd5b506101d260048036038101906101cd9190611fe0565b610759565b6040516101df91906129a7565b60405180910390f35b3480156101f457600080fd5b506101fd610781565b60405161020a919061284d565b60405180910390f35b34801561021f57600080fd5b5061023a60048036038101906102359190611eaf565b6107a5565b005b34801561024857600080fd5b50610263600480360381019061025e9190611fe0565b610943565b60405161027091906129a7565b60405180910390f35b34801561028557600080fd5b506102a0600480360381019061029b9190611f52565b610971565b6040516102ad919061284d565b60405180910390f35b3480156102c257600080fd5b506102dd60048036038101906102d89190611f7b565b610990565b005b3480156102eb57600080fd5b5061030660048036038101906103019190611f7b565b6109b9565b005b34801561031457600080fd5b5061031d610a3c565b60405161032a919061284d565b60405180910390f35b34801561033f57600080fd5b5061035a60048036038101906103559190612075565b610a60565b005b34801561036857600080fd5b50610383600480360381019061037e9190612021565b610d48565b005b34801561039157600080fd5b5061039a610ddd565b6040516103a79190612810565b60405180910390f35b3480156103bc57600080fd5b506103c5611006565b6040516103d291906129a7565b60405180910390f35b3480156103e757600080fd5b5061040260048036038101906103fd9190611f7b565b61100c565b60405161040f9190612832565b60405180910390f35b34801561042457600080fd5b5061042d611076565b60405161043a919061284d565b60405180910390f35b34801561044f57600080fd5b5061045861107d565b60405161046591906129a7565b60405180910390f35b34801561047a57600080fd5b5061049560048036038101906104909190612075565b611083565b6040516104a29190612985565b60405180910390f35b3480156104b757600080fd5b506104d260048036038101906104cd9190612075565b6111c7565b005b3480156104e057600080fd5b506104fb60048036038101906104f69190611e86565b61140f565b604051610508919061296a565b60405180910390f35b34801561051d57600080fd5b5061053860048036038101906105339190611f7b565b6114c8565b005b34801561054657600080fd5b50610561600480360381019061055c9190612075565b6114f1565b005b60007f7965db0b000000000000000000000000000000000000000000000000000000007bffffffffffffffffffffffffffffffffffffffffffffffffffffffff1916827bffffffffffffffffffffffffffffffffffffffffffffffffffffffff191614806105d657506105d5826116e6565b5b9050919050565b7fb19546dff01e856fb3f010c267a7b1c60363cf8a4664e21cc89c26224620214e61060f8161060a611750565b611758565b6040518060a001604052808573ffffffffffffffffffffffffffffffffffffffff168152602001848152602001838152602001600015158152602001600081525060026000600754815260200190815260200160002060008201518160000160006101000a81548173ffffffffffffffffffffffffffffffffffffffff021916908373ffffffffffffffffffffffffffffffffffffffff1602179055506020820151816001015560408201518160020190805190602001906106d2929190611cb0565b5060608201518160030160006101000a81548160ff021916908315150217905550608082015181600401559050506007600081548092919061071390612cdf565b91905055507fdbbd4f0c67e54f103bfd3b507c4183d751530b2336b6db66233eb37a6671b41a33848660405161074b9392919061275d565b60405180910390a150505050565b600060018260405161076b919061268e565b9081526020016040518091039020549050919050565b7fb19546dff01e856fb3f010c267a7b1c60363cf8a4664e21cc89c26224620214e81565b7fb19546dff01e856fb3f010c267a7b1c60363cf8a4664e21cc89c26224620214e6107d7816107d2611750565b611758565b60405180604001604052808473ffffffffffffffffffffffffffffffffffffffff16815260200183815250600360008573ffffffffffffffffffffffffffffffffffffffff1673ffffffffffffffffffffffffffffffffffffffff16815260200190815260200160002060008201518160000160006101000a81548173ffffffffffffffffffffffffffffffffffffffff021916908373ffffffffffffffffffffffffffffffffffffffff160217905550602082015181600101559050506001600560008573ffffffffffffffffffffffffffffffffffffffff1673ffffffffffffffffffffffffffffffffffffffff16815260200190815260200160002060006101000a81548160ff0219169083151502179055506006600081548092919061090090612cdf565b91905055507f50999ebf9b59bf3157a58816611976f2d723378ad51457d7b0413209e0cdee598383604051610936929190612734565b60405180910390a1505050565b6001818051602081018201805184825260208301602085012081835280955050505050506000915090505481565b6000806000838152602001908152602001600020600101549050919050565b61099982610971565b6109aa816109a5611750565b611758565b6109b483836117f5565b505050565b6109c1611750565b73ffffffffffffffffffffffffffffffffffffffff168173ffffffffffffffffffffffffffffffffffffffff1614610a2e576040517f08c379a0000000000000000000000000000000000000000000000000000000008152600401610a259061292a565b60405180910390fd5b610a3882826118d5565b5050565b7fe2f4eaae4a9751e85a3e4a7b9587827a877f29914755229b07a7b2da98285f7081565b7fe2f4eaae4a9751e85a3e4a7b9587827a877f29914755229b07a7b2da98285f70610a9281610a8d611750565b611758565b818060075410158015610aa757506000600754115b610ae6576040517f08c379a0000000000000000000000000000000000000000000000000000000008152600401610add9061294a565b60405180910390fd5b826004600082815260200190815260200160002060003373ffffffffffffffffffffffffffffffffffffffff1673ffffffffffffffffffffffffffffffffffffffff16815260200190815260200160002060009054906101000a900460ff1615610b85576040517f08c379a0000000000000000000000000000000000000000000000000000000008152600401610b7c906128ea565b60405180910390fd5b600060026000868152602001908152602001600020905060003390506000600360008373ffffffffffffffffffffffffffffffffffffffff1673ffffffffffffffffffffffffffffffffffffffff1681526020019081526020016000206040518060400160405290816000820160009054906101000a900473ffffffffffffffffffffffffffffffffffffffff1673ffffffffffffffffffffffffffffffffffffffff1673ffffffffffffffffffffffffffffffffffffffff16815260200160018201548152505090508060200151836004016000828254610c679190612aa9565b9250508190555060016004600089815260200190815260200160002060003373ffffffffffffffffffffffffffffffffffffffff1673ffffffffffffffffffffffffffffffffffffffff16815260200190815260200160002060006101000a81548160ff0219169083151502179055506000600184600201604051610cec91906126a5565b90815260200160405180910390205490507f1d7dde13fe5441b64328c9356ab10c4317d9a644bb7b79348910872c359c109d3389846020015184604051610d3694939291906127cb565b60405180910390a15050505050505050565b7fe2f4eaae4a9751e85a3e4a7b9587827a877f29914755229b07a7b2da98285f70610d7a81610d75611750565b611758565b81600184604051610d8b919061268e565b9081526020016040518091039020819055507fda9bad9d7968e5b76a103033ee97f0352fb67a06e70bc6fcb986893ef24b5ed4338484604051610dd0939291906126f6565b60405180910390a1505050565b6060600060075467ffffffffffffffff811115610e23577f4e487b7100000000000000000000000000000000000000000000000000000000600052604160045260246000fd5b604051908082528060200260200182016040528015610e5c57816020015b610e49611d36565b815260200190600190039081610e415790505b50905060005b600754811015610ffe576000600260008381526020019081526020016000209050806040518060a00160405290816000820160009054906101000a900473ffffffffffffffffffffffffffffffffffffffff1673ffffffffffffffffffffffffffffffffffffffff1673ffffffffffffffffffffffffffffffffffffffff16815260200160018201548152602001600282018054610eff90612cad565b80601f0160208091040260200160405190810160405280929190818152602001828054610f2b90612cad565b8015610f785780601f10610f4d57610100808354040283529160200191610f78565b820191906000526020600020905b815481529060010190602001808311610f5b57829003601f168201915b505050505081526020016003820160009054906101000a900460ff16151515158152602001600482015481525050838381518110610fdf577f4e487b7100000000000000000000000000000000000000000000000000000000600052603260045260246000fd5b6020026020010181905250508080610ff690612cdf565b915050610e62565b508091505090565b60075481565b600080600084815260200190815260200160002060000160008373ffffffffffffffffffffffffffffffffffffffff1673ffffffffffffffffffffffffffffffffffffffff16815260200190815260200160002060009054906101000a900460ff16905092915050565b6000801b81565b60065481565b61108b611d36565b600260008381526020019081526020016000206040518060a00160405290816000820160009054906101000a900473ffffffffffffffffffffffffffffffffffffffff1673ffffffffffffffffffffffffffffffffffffffff1673ffffffffffffffffffffffffffffffffffffffff1681526020016001820154815260200160028201805461111990612cad565b80601f016020809104026020016040519081016040528092919081815260200182805461114590612cad565b80156111925780601f1061116757610100808354040283529160200191611192565b820191906000526020600020905b81548152906001019060200180831161117557829003601f168201915b505050505081526020016003820160009054906101000a900460ff161515151581526020016004820154815250509050919050565b7fe2f4eaae4a9751e85a3e4a7b9587827a877f29914755229b07a7b2da98285f706111f9816111f4611750565b611758565b81806007541015801561120e57506000600754115b61124d576040517f08c379a00000000000000000000000000000000000000000000000000000000081526004016112449061294a565b60405180910390fd5b826002600082815260200190815260200160002060030160009054906101000a900460ff16156112b2576040517f08c379a00000000000000000000000000000000000000000000000000000000081526004016112a9906128ca565b60405180910390fd5b600060026000868152602001908152602001600020905060006001826002016040516112de91906126a5565b90815260200160405180910390205490508082600401541015611336576040517f08c379a000000000000000000000000000000000000000000000000000000000815260040161132d9061290a565b60405180910390fd5b60008260000160009054906101000a900473ffffffffffffffffffffffffffffffffffffffff1690508073ffffffffffffffffffffffffffffffffffffffff166108fc84600101549081150290604051600060405180830381858888f193505050501580156113a9573d6000803e3d6000fd5b5060018360030160006101000a81548160ff0219169083151502179055507f5d322aa413eb32efd4a9c0be149a65487b54804ead807d802631b2cb2c5321c6308460010154836040516113fe93929190612794565b60405180910390a150505050505050565b611417611d7d565b600360008373ffffffffffffffffffffffffffffffffffffffff1673ffffffffffffffffffffffffffffffffffffffff1681526020019081526020016000206040518060400160405290816000820160009054906101000a900473ffffffffffffffffffffffffffffffffffffffff1673ffffffffffffffffffffffffffffffffffffffff1673ffffffffffffffffffffffffffffffffffffffff1681526020016001820154815250509050919050565b6114d182610971565b6114e2816114dd611750565b611758565b6114ec83836118d5565b505050565b7fe2f4eaae4a9751e85a3e4a7b9587827a877f29914755229b07a7b2da98285f706115238161151e611750565b611758565b816004600082815260200190815260200160002060003373ffffffffffffffffffffffffffffffffffffffff1673ffffffffffffffffffffffffffffffffffffffff16815260200190815260200160002060009054906101000a900460ff166115c1576040517f08c379a00000000000000000000000000000000000000000000000000000000081526004016115b8906128aa565b60405180910390fd5b60006002600085815260200190815260200160002090506000600360003373ffffffffffffffffffffffffffffffffffffffff1673ffffffffffffffffffffffffffffffffffffffff16815260200190815260200160002060010154905060008183600401546116319190612b59565b905080836004018190555060006004600088815260200190815260200160002060003373ffffffffffffffffffffffffffffffffffffffff1673ffffffffffffffffffffffffffffffffffffffff16815260200190815260200160002060006101000a81548160ff0219169083151502179055507f6e6180ac33a40129fce08928a0b19e1a8811dccf83afd9ab4496df48c3be1b0533836040516116d6929190612734565b60405180910390a1505050505050565b60007f01ffc9a7000000000000000000000000000000000000000000000000000000007bffffffffffffffffffffffffffffffffffffffffffffffffffffffff1916827bffffffffffffffffffffffffffffffffffffffffffffffffffffffff1916149050919050565b600033905090565b611762828261100c565b6117f1576117878173ffffffffffffffffffffffffffffffffffffffff1660146119b6565b6117958360001c60206119b6565b6040516020016117a69291906126bc565b6040516020818303038152906040526040517f08c379a00000000000000000000000000000000000000000000000000000000081526004016117e89190612868565b60405180910390fd5b5050565b6117ff828261100c565b6118d157600160008084815260200190815260200160002060000160008373ffffffffffffffffffffffffffffffffffffffff1673ffffffffffffffffffffffffffffffffffffffff16815260200190815260200160002060006101000a81548160ff021916908315150217905550611876611750565b73ffffffffffffffffffffffffffffffffffffffff168173ffffffffffffffffffffffffffffffffffffffff16837f2f8788117e7eff1d82e926ec794901d17c78024a50270940304540a733656f0d60405160405180910390a45b5050565b6118df828261100c565b156119b257600080600084815260200190815260200160002060000160008373ffffffffffffffffffffffffffffffffffffffff1673ffffffffffffffffffffffffffffffffffffffff16815260200190815260200160002060006101000a81548160ff021916908315150217905550611957611750565b73ffffffffffffffffffffffffffffffffffffffff168173ffffffffffffffffffffffffffffffffffffffff16837ff6391f5c32d9c69d2a47ea670b442974b53935d1edc7fd64eb21e047a839171b60405160405180910390a45b5050565b6060600060028360026119c99190612aff565b6119d39190612aa9565b67ffffffffffffffff811115611a12577f4e487b7100000000000000000000000000000000000000000000000000000000600052604160045260246000fd5b6040519080825280601f01601f191660200182016040528015611a445781602001600182028036833780820191505090505b5090507f300000000000000000000000000000000000000000000000000000000000000081600081518110611aa2577f4e487b7100000000000000000000000000000000000000000000000000000000600052603260045260246000fd5b60200101907effffffffffffffffffffffffffffffffffffffffffffffffffffffffffffff1916908160001a9053507f780000000000000000000000000000000000000000000000000000000000000081600181518110611b2c577f4e487b7100000000000000000000000000000000000000000000000000000000600052603260045260246000fd5b60200101907effffffffffffffffffffffffffffffffffffffffffffffffffffffffffffff1916908160001a90535060006001846002611b6c9190612aff565b611b769190612aa9565b90505b6001811115611c62577f3031323334353637383961626364656600000000000000000000000000000000600f861660108110611bde577f4e487b7100000000000000000000000000000000000000000000000000000000600052603260045260246000fd5b1a60f81b828281518110611c1b577f4e487b7100000000000000000000000000000000000000000000000000000000600052603260045260246000fd5b60200101907effffffffffffffffffffffffffffffffffffffffffffffffffffffffffffff1916908160001a905350600485901c945080611c5b90612c83565b9050611b79565b5060008414611ca6576040517f08c379a0000000000000000000000000000000000000000000000000000000008152600401611c9d9061288a565b60405180910390fd5b8091505092915050565b828054611cbc90612cad565b90600052602060002090601f016020900481019282611cde5760008555611d25565b82601f10611cf757805160ff1916838001178555611d25565b82800160010185558215611d25579182015b82811115611d24578251825591602001919060010190611d09565b5b509050611d329190611dad565b5090565b6040518060a00160405280600073ffffffffffffffffffffffffffffffffffffffff1681526020016000815260200160608152602001600015158152602001600081525090565b6040518060400160405280600073ffffffffffffffffffffffffffffffffffffffff168152602001600081525090565b5b80821115611dc6576000816000905550600101611dae565b5090565b6000611ddd611dd8846129f3565b6129c2565b905082815260208101848484011115611df557600080fd5b611e00848285612c41565b509392505050565b600081359050611e1781612dc6565b92915050565b600081359050611e2c81612ddd565b92915050565b600081359050611e4181612df4565b92915050565b600082601f830112611e5857600080fd5b8135611e68848260208601611dca565b91505092915050565b600081359050611e8081612e0b565b92915050565b600060208284031215611e9857600080fd5b6000611ea684828501611e08565b91505092915050565b60008060408385031215611ec257600080fd5b6000611ed085828601611e08565b9250506020611ee185828601611e71565b9150509250929050565b600080600060608486031215611f0057600080fd5b6000611f0e86828701611e08565b9350506020611f1f86828701611e71565b925050604084013567ffffffffffffffff811115611f3c57600080fd5b611f4886828701611e47565b9150509250925092565b600060208284031215611f6457600080fd5b6000611f7284828501611e1d565b91505092915050565b60008060408385031215611f8e57600080fd5b6000611f9c85828601611e1d565b9250506020611fad85828601611e08565b9150509250929050565b600060208284031215611fc957600080fd5b6000611fd784828501611e32565b91505092915050565b600060208284031215611ff257600080fd5b600082013567ffffffffffffffff81111561200c57600080fd5b61201884828501611e47565b91505092915050565b6000806040838503121561203457600080fd5b600083013567ffffffffffffffff81111561204e57600080fd5b61205a85828601611e47565b925050602061206b85828601611e71565b9150509250929050565b60006020828403121561208757600080fd5b600061209584828501611e71565b91505092915050565b60006120aa8383612584565b905092915050565b6120bb81612c0b565b82525050565b6120ca81612b8d565b82525050565b6120d981612b8d565b82525050565b60006120ea82612a48565b6120f48185612a6b565b93508360208202850161210685612a23565b8060005b858110156121425784840389528151612123858261209e565b945061212e83612a5e565b925060208a0199505060018101905061210a565b50829750879550505050505092915050565b61215d81612b9f565b82525050565b61216c81612b9f565b82525050565b61217b81612bab565b82525050565b600061218c82612a53565b6121968185612a7c565b93506121a6818560208601612c50565b6121af81612db5565b840191505092915050565b60006121c582612a53565b6121cf8185612a8d565b93506121df818560208601612c50565b6121e881612db5565b840191505092915050565b60006121fe82612a53565b6122088185612a9e565b9350612218818560208601612c50565b80840191505092915050565b6000815461223181612cad565b61223b8186612a9e565b9450600182166000811461225657600181146122675761229a565b60ff1983168652818601935061229a565b61227085612a33565b60005b8381101561229257815481890152600182019150602081019050612273565b838801955050505b50505092915050565b60006122b0602083612a8d565b91507f537472696e67733a20686578206c656e67746820696e73756666696369656e746000830152602082019050919050565b60006122f0602483612a8d565b91507f596f752068617665206e6f74207369676e65642074686973207472616e73616360008301527f74696f6e000000000000000000000000000000000000000000000000000000006020830152604082019050919050565b6000612356601d83612a8d565b91507f7472616e73616374696f6e20616c7265616479207375626d69747465640000006000830152602082019050919050565b6000612396601983612a8d565b91507f4164647265737320616c7265616479205369676e6564205478000000000000006000830152602082019050919050565b60006123d6603583612a8d565b91507f6e656564206d6f7265207369676e657220746f207369676e207472616e73616360008301527f74696f6e206265666f726520657865637574696f6e00000000000000000000006020830152604082019050919050565b600061243c601783612a9e565b91507f416363657373436f6e74726f6c3a206163636f756e74200000000000000000006000830152601782019050919050565b600061247c601183612a9e565b91507f206973206d697373696e6720726f6c65200000000000000000000000000000006000830152601182019050919050565b60006124bc602f83612a8d565b91507f416363657373436f6e74726f6c3a2063616e206f6e6c792072656e6f756e636560008301527f20726f6c657320666f722073656c6600000000000000000000000000000000006020830152604082019050919050565b6000612522601483612a8d565b91507f4e6f2056616c6964205472616e73616374696f6e0000000000000000000000006000830152602082019050919050565b60408201600082015161256b60008501826120c1565b50602082015161257e6020850182612670565b50505050565b600060a08301600083015161259c60008601826120c1565b5060208301516125af6020860182612670565b50604083015184820360408601526125c78282612181565b91505060608301516125dc6060860182612154565b5060808301516125ef6080860182612670565b508091505092915050565b600060a08301600083015161261260008601826120c1565b5060208301516126256020860182612670565b506040830151848203604086015261263d8282612181565b91505060608301516126526060860182612154565b5060808301516126656080860182612670565b508091505092915050565b61267981612c01565b82525050565b61268881612c01565b82525050565b600061269a82846121f3565b915081905092915050565b60006126b18284612224565b915081905092915050565b60006126c78261242f565b91506126d382856121f3565b91506126de8261246f565b91506126ea82846121f3565b91508190509392505050565b600060608201905061270b60008301866120d0565b818103602083015261271d81856121ba565b905061272c604083018461267f565b949350505050565b600060408201905061274960008301856120d0565b612756602083018461267f565b9392505050565b600060608201905061277260008301866120d0565b61277f602083018561267f565b61278c60408301846120d0565b949350505050565b60006060820190506127a960008301866120d0565b6127b6602083018561267f565b6127c360408301846120b2565b949350505050565b60006080820190506127e060008301876120d0565b6127ed602083018661267f565b6127fa604083018561267f565b612807606083018461267f565b95945050505050565b6000602082019050818103600083015261282a81846120df565b905092915050565b60006020820190506128476000830184612163565b92915050565b60006020820190506128626000830184612172565b92915050565b6000602082019050818103600083015261288281846121ba565b905092915050565b600060208201905081810360008301526128a3816122a3565b9050919050565b600060208201905081810360008301526128c3816122e3565b9050919050565b600060208201905081810360008301526128e381612349565b9050919050565b6000602082019050818103600083015261290381612389565b9050919050565b60006020820190508181036000830152612923816123c9565b9050919050565b60006020820190508181036000830152612943816124af565b9050919050565b6000602082019050818103600083015261296381612515565b9050919050565b600060408201905061297f6000830184612555565b92915050565b6000602082019050818103600083015261299f81846125fa565b905092915050565b60006020820190506129bc600083018461267f565b92915050565b6000604051905081810181811067ffffffffffffffff821117156129e9576129e8612d86565b5b8060405250919050565b600067ffffffffffffffff821115612a0e57612a0d612d86565b5b601f19601f8301169050602081019050919050565b6000819050602082019050919050565b60008190508160005260206000209050919050565b600081519050919050565b600081519050919050565b6000602082019050919050565b600082825260208201905092915050565b600082825260208201905092915050565b600082825260208201905092915050565b600081905092915050565b6000612ab482612c01565b9150612abf83612c01565b9250827fffffffffffffffffffffffffffffffffffffffffffffffffffffffffffffffff03821115612af457612af3612d28565b5b828201905092915050565b6000612b0a82612c01565b9150612b1583612c01565b9250817fffffffffffffffffffffffffffffffffffffffffffffffffffffffffffffffff0483118215151615612b4e57612b4d612d28565b5b828202905092915050565b6000612b6482612c01565b9150612b6f83612c01565b925082821015612b8257612b81612d28565b5b828203905092915050565b6000612b9882612be1565b9050919050565b60008115159050919050565b6000819050919050565b60007fffffffff0000000000000000000000000000000000000000000000000000000082169050919050565b600073ffffffffffffffffffffffffffffffffffffffff82169050919050565b6000819050919050565b6000612c1682612c1d565b9050919050565b6000612c2882612c2f565b9050919050565b6000612c3a82612be1565b9050919050565b82818337600083830152505050565b60005b83811015612c6e578082015181840152602081019050612c53565b83811115612c7d576000848401525b50505050565b6000612c8e82612c01565b91506000821415612ca257612ca1612d28565b5b600182039050919050565b60006002820490506001821680612cc557607f821691505b60208210811415612cd957612cd8612d57565b5b50919050565b6000612cea82612c01565b91507fffffffffffffffffffffffffffffffffffffffffffffffffffffffffffffffff821415612d1d57612d1c612d28565b5b600182019050919050565b7f4e487b7100000000000000000000000000000000000000000000000000000000600052601160045260246000fd5b7f4e487b7100000000000000000000000000000000000000000000000000000000600052602260045260246000fd5b7f4e487b7100000000000000000000000000000000000000000000000000000000600052604160045260246000fd5b6000601f19601f8301169050919050565b612dcf81612b8d565b8114612dda57600080fd5b50565b612de681612bab565b8114612df157600080fd5b50565b612dfd81612bb5565b8114612e0857600080fd5b50565b612e1481612c01565b8114612e1f57600080fd5b5056fea2646970667358221220839761abb4977a5c03fed10dd51436b77dcc17e8ead496bf3689c2908af2436e64736f6c63430008000033",
  "immutableReferences": {},
  "source": "// SPDX-License-Identifier: MIT\npragma solidity >=0.4.22 <0.9.0;\n\n//can Add Transaction and threshold for TX\n// can add signer and weight\n// can add new transaction Type\n// get a transaction count\n// get all transactions\n// get signer count\n// get signer using their address\n// get tx using their index\n// transaction Threshold\n//Submit tx if threshold is meant\n\n//// revock signed tx\n//get all transaction\n\nimport \"@openzeppelin/contracts/access/AccessControl.sol\";\n\n\ncontract MuiltSigWithThreshold is AccessControl  {\n\n    //Mapping for transactions List, shows all type of transactions\n    mapping(string => uint) public transactionTypeList;\n\n    //Mapping for All TRansactions\n    mapping(uint => TransactionObj) listOfAllTransactions;\n\n    //\n\n    //Modifier to check if the sender has the right weight to call functions\n\n    struct TransactionObj{\n        address to;\n        uint amount;\n        string transactionType;\n        bool executed;\n        uint totalNumbersOfSig;\n    }\n    struct SignerList{\n        address id;\n        uint sigWeight;\n    }\n    event TransactionSubmitted(address _sender, uint _amt, address _receiver);\n    event SignerAdded(address _signerAdd, uint _signerWeight);\n    event TransactionAdded(address _adder, uint _amount, address _to);\n    event TransactionSigned(address _signer, uint _txIndex, uint _signerWeight, uint _requiredThreshold);\n    event NewTypeOfTransactionAdded(address _sender, string _txName, uint _requiredThreshold);\n    event revockSignature(address _sender, uint _weightRemove);\n\n    mapping(address => SignerList) AllSigners;\n    mapping(uint => mapping(address => bool)) isSigned; //if Tx is signed\n    mapping(address => bool) addressIsASigner; // Need to get the address specific index numder to work perfectly\n    uint public signerCounter;\n\n    // TransactionObj[] private listOfAllTransactions;\n    //Counter for Transaction\n    uint public txCounter;\n\n\n    modifier isTxSigned(uint _txID){\n        require(!isSigned[_txID][msg.sender], \"Address already Signed Tx\");\n        _;\n    }\n    modifier isAddrASigner(){\n        require(addressIsASigner[msg.sender], \"Not a Signer\");\n        _;\n    }\n\n    modifier TxNotExecuted(uint _txIndex){\n        require(!listOfAllTransactions[_txIndex].executed, \"transaction already submitted\");\n        _;\n    }\n    modifier hasAddrSignedTx(uint _txIndex){\n        require(isSigned[_txIndex][msg.sender], \"You have not signed this transaction\");\n        _;\n    }\n    modifier isTransactionAvailable(uint _txIndex){\n        require(txCounter >= _txIndex && txCounter > 0, \"No Valid Transaction\");\n        _;\n    }\n    //ROLES SETUP\n    bytes32 public constant OWNER = keccak256(\"OWNER_ROLE\");\n    bytes32 public constant SIGNER = keccak256(\"SIGNER_ROLE\");\n\n\n    // Contructor takes numbers of address, their weight. We use a pre-defined threshold for all type of transactions\n    // The threshold is the number of signatures required to approve a transaction\n\n    constructor(){\n        _setupRole(OWNER, msg.sender);\n        transactionTypeList[\"deposit\"] = 0;\n        transactionTypeList[\"withdrawal\"] = 80;\n        transactionTypeList[\"transfer\"] = 60;\n        txCounter =0;\n        signerCounter =0;\n    }\n\n    // Need to Restrict the add signer method to only owner\n    // allowing smart contrcat to recieve eth\n\n\n     receive() external payable {}\n\n\n// ===============================================================================\n                // TRANSACTIONS\n// ===============================================================================\n\n\n    // Add a new Transaction for signing\n    function addTransaction(address _to, uint _amt, string memory _transactionType ) public onlyRole(OWNER) {\n\n        // modifier to automatically check transaction type\n        listOfAllTransactions[txCounter] = TransactionObj({\n            to: _to,\n            amount:_amt,\n            executed: false,\n            transactionType: _transactionType,\n            totalNumbersOfSig:0\n\n        });\n\n        txCounter++;\n        emit TransactionAdded(msg.sender, _amt, _to);\n    }\n\n    //Method to check if transaction exist and if yes, it returns it threshold\n    // add modiers to check if transaction exist in our list of tx, if not we return an error\n    function getTxWeight(string memory _txName) public view returns (uint){\n        return transactionTypeList[_txName];\n    }\n\n\n    // return a tuple of all availabe transaction and their details including signature\n    function getAllTranactions() public view returns (TransactionObj[] memory){\n        TransactionObj[] memory transactionobj = new TransactionObj[](txCounter);\n        for (uint i = 0; i < txCounter; i++) {\n            TransactionObj storage txobjs = listOfAllTransactions[i];\n            transactionobj[i] = txobjs;\n        }\n        return transactionobj;\n    }\n    //This get transaction by it index number\n    function getTxByID(uint _txID) public view returns(TransactionObj memory) {\n        return listOfAllTransactions[_txID];\n    }\n\n    //This adds a specific new type of transaction type and also the weight threshold required to execute\n    function addTxWeight(string memory _name, uint _weight) public onlyRole(SIGNER) {\n        transactionTypeList[_name]=_weight;\n        emit NewTypeOfTransactionAdded(msg.sender, _name, _weight);\n    }\n\n    function revockSignerSig(uint _txIndex) public onlyRole(SIGNER) hasAddrSignedTx(_txIndex){\n        TransactionObj storage _tx = listOfAllTransactions[_txIndex];\n        uint addressWeight = AllSigners[msg.sender].sigWeight;\n        uint newTxvalue = _tx.totalNumbersOfSig - addressWeight;\n        _tx.totalNumbersOfSig = newTxvalue;\n        isSigned[_txIndex][msg.sender] = false;\n\n        emit revockSignature(msg.sender, addressWeight);\n    }\n\n// ===============================================================================\n            // SIGNERS\n// ===============================================================================\n\n      //This add a specific address and their weight\n    function addSignerWithWeight(address _signerAdd, uint _weight) public onlyRole(OWNER) {\n        AllSigners[_signerAdd] = SignerList({ id:_signerAdd, sigWeight: _weight});\n        addressIsASigner[_signerAdd] = true;\n        signerCounter++;\n        emit SignerAdded(_signerAdd, _weight);\n    }\n\n\n    //get signer by their index and return their address and weight\n    function getSignerByAddress(address _address )public view returns (SignerList memory){\n        return AllSigners[_address];\n    }\n\n\n    //this should all address to sign transaction\n    function signTransaction(uint _txId) public onlyRole(SIGNER) isTransactionAvailable(_txId) isTxSigned (_txId) {\n        TransactionObj storage txToSign = listOfAllTransactions[_txId];\n        address _signerAddress = msg.sender;\n        SignerList memory _signer = AllSigners[_signerAddress];\n        txToSign.totalNumbersOfSig += _signer.sigWeight;\n        isSigned[_txId][msg.sender] = true;\n        uint txrequiredThreashold = transactionTypeList[txToSign.transactionType];\n\n        emit TransactionSigned(msg.sender, _txId, _signer.sigWeight, txrequiredThreashold);\n\n    }\n\n    // //this should all users to submit transaction if weidgt meets the threshold of the transaction type\n    function submitTransaction(uint _txIndex) public onlyRole(SIGNER) isTransactionAvailable(_txIndex) TxNotExecuted(_txIndex) {\n        TransactionObj storage _txToSubmit = listOfAllTransactions[_txIndex];\n        uint _txThreshold = transactionTypeList[_txToSubmit.transactionType];\n        require(_txToSubmit.totalNumbersOfSig >= _txThreshold, \"need more signer to sign transaction before execution\");\n        address payable recipientAddres = payable(_txToSubmit.to);\n        recipientAddres.transfer(_txToSubmit.amount);\n        _txToSubmit.executed = true;\n        emit TransactionSubmitted(address(this), _txToSubmit.amount, recipientAddres);\n    }\n}\n\n\n",
  "sourcePath": "/Users/afolabi/blockchaindev/blockchain-developer-bootcamp-final-project/contracts/multiSig.sol",
  "compiler": {
    "name": "solc",
    "version": "0.8.0+commit.c7dfd78e.Emscripten.clang"
  },
  "schemaVersion": "3.4.4",
  "updatedAt": "2022-04-12T11:27:59.253Z",
  "devdoc": {
    "kind": "dev",
    "methods": {
      "getRoleAdmin(bytes32)": {
        "details": "Returns the admin role that controls `role`. See {grantRole} and {revokeRole}. To change a role's admin, use {_setRoleAdmin}."
      },
      "grantRole(bytes32,address)": {
        "details": "Grants `role` to `account`. If `account` had not been already granted `role`, emits a {RoleGranted} event. Requirements: - the caller must have ``role``'s admin role."
      },
      "hasRole(bytes32,address)": {
        "details": "Returns `true` if `account` has been granted `role`."
      },
      "renounceRole(bytes32,address)": {
        "details": "Revokes `role` from the calling account. Roles are often managed via {grantRole} and {revokeRole}: this function's purpose is to provide a mechanism for accounts to lose their privileges if they are compromised (such as when a trusted device is misplaced). If the calling account had been granted `role`, emits a {RoleRevoked} event. Requirements: - the caller must be `account`."
      },
      "revokeRole(bytes32,address)": {
        "details": "Revokes `role` from `account`. If `account` had been granted `role`, emits a {RoleRevoked} event. Requirements: - the caller must have ``role``'s admin role."
      },
      "supportsInterface(bytes4)": {
        "details": "See {IERC165-supportsInterface}."
      }
    },
    "version": 1
  },
  "userdoc": {
    "kind": "user",
    "methods": {},
    "version": 1
  }
}