{
  "contractName": "multiSigWithThreshold",
  "abi": [
    {
      "inputs": [],
      "stateMutability": "nonpayable",
      "type": "constructor"
    },
    {
      "anonymous": false,
      "inputs": [
        {
          "indexed": false,
          "internalType": "address",
          "name": "_sender",
          "type": "address"
        },
        {
          "indexed": false,
          "internalType": "string",
          "name": "_txName",
          "type": "string"
        },
        {
          "indexed": false,
          "internalType": "uint256",
          "name": "_requiredThreshold",
          "type": "uint256"
        }
      ],
      "name": "NewTypeOfTransactionAdded",
      "type": "event"
    },
    {
      "anonymous": false,
      "inputs": [
        {
          "indexed": true,
          "internalType": "address",
          "name": "previousOwner",
          "type": "address"
        },
        {
          "indexed": true,
          "internalType": "address",
          "name": "newOwner",
          "type": "address"
        }
      ],
      "name": "OwnershipTransferred",
      "type": "event"
    },
    {
      "anonymous": false,
      "inputs": [
        {
          "indexed": false,
          "internalType": "address",
          "name": "_signerAdd",
          "type": "address"
        },
        {
          "indexed": false,
          "internalType": "uint256",
          "name": "_signerWeight",
          "type": "uint256"
        }
      ],
      "name": "SignerAdded",
      "type": "event"
    },
    {
      "anonymous": false,
      "inputs": [
        {
          "indexed": false,
          "internalType": "address",
          "name": "_adder",
          "type": "address"
        },
        {
          "indexed": false,
          "internalType": "uint256",
          "name": "_amount",
          "type": "uint256"
        },
        {
          "indexed": false,
          "internalType": "address",
          "name": "_to",
          "type": "address"
        }
      ],
      "name": "TransactionAdded",
      "type": "event"
    },
    {
      "anonymous": false,
      "inputs": [
        {
          "indexed": false,
          "internalType": "address",
          "name": "_signer",
          "type": "address"
        },
        {
          "indexed": false,
          "internalType": "uint256",
          "name": "_txIndex",
          "type": "uint256"
        },
        {
          "indexed": false,
          "internalType": "uint256",
          "name": "_signerWeight",
          "type": "uint256"
        },
        {
          "indexed": false,
          "internalType": "uint256",
          "name": "_requiredThreshold",
          "type": "uint256"
        }
      ],
      "name": "TransactionSigned",
      "type": "event"
    },
    {
      "anonymous": false,
      "inputs": [
        {
          "indexed": false,
          "internalType": "address",
          "name": "_sender",
          "type": "address"
        },
        {
          "indexed": false,
          "internalType": "uint256",
          "name": "_amt",
          "type": "uint256"
        },
        {
          "indexed": false,
          "internalType": "address",
          "name": "_receiver",
          "type": "address"
        }
      ],
      "name": "TransactionSubmitted",
      "type": "event"
    },
    {
      "anonymous": false,
      "inputs": [
        {
          "indexed": false,
          "internalType": "address",
          "name": "_sender",
          "type": "address"
        },
        {
          "indexed": false,
          "internalType": "uint256",
          "name": "_weightRemove",
          "type": "uint256"
        }
      ],
      "name": "revockSignature",
      "type": "event"
    },
    {
      "inputs": [],
      "name": "owner",
      "outputs": [
        {
          "internalType": "address",
          "name": "",
          "type": "address"
        }
      ],
      "stateMutability": "view",
      "type": "function"
    },
    {
      "inputs": [],
      "name": "renounceOwnership",
      "outputs": [],
      "stateMutability": "nonpayable",
      "type": "function"
    },
    {
      "inputs": [],
      "name": "signerCounter",
      "outputs": [
        {
          "internalType": "uint256",
          "name": "",
          "type": "uint256"
        }
      ],
      "stateMutability": "view",
      "type": "function"
    },
    {
      "inputs": [
        {
          "internalType": "string",
          "name": "",
          "type": "string"
        }
      ],
      "name": "transactionTypeList",
      "outputs": [
        {
          "internalType": "uint256",
          "name": "",
          "type": "uint256"
        }
      ],
      "stateMutability": "view",
      "type": "function"
    },
    {
      "inputs": [
        {
          "internalType": "address",
          "name": "newOwner",
          "type": "address"
        }
      ],
      "name": "transferOwnership",
      "outputs": [],
      "stateMutability": "nonpayable",
      "type": "function"
    },
    {
      "inputs": [],
      "name": "txCounter",
      "outputs": [
        {
          "internalType": "uint256",
          "name": "",
          "type": "uint256"
        }
      ],
      "stateMutability": "view",
      "type": "function"
    },
    {
      "stateMutability": "payable",
      "type": "receive"
    },
    {
      "inputs": [
        {
          "internalType": "address",
          "name": "_to",
          "type": "address"
        },
        {
          "internalType": "uint256",
          "name": "_amt",
          "type": "uint256"
        },
        {
          "internalType": "string",
          "name": "_transactionType",
          "type": "string"
        }
      ],
      "name": "addTransaction",
      "outputs": [],
      "stateMutability": "nonpayable",
      "type": "function"
    },
    {
      "inputs": [
        {
          "internalType": "string",
          "name": "_txName",
          "type": "string"
        }
      ],
      "name": "getTxWeight",
      "outputs": [
        {
          "internalType": "uint256",
          "name": "",
          "type": "uint256"
        }
      ],
      "stateMutability": "view",
      "type": "function"
    },
    {
      "inputs": [],
      "name": "getAllTranactions",
      "outputs": [
        {
          "components": [
            {
              "internalType": "address",
              "name": "to",
              "type": "address"
            },
            {
              "internalType": "uint256",
              "name": "amount",
              "type": "uint256"
            },
            {
              "internalType": "string",
              "name": "transactionType",
              "type": "string"
            },
            {
              "internalType": "bool",
              "name": "executed",
              "type": "bool"
            },
            {
              "internalType": "uint256",
              "name": "totalNumbersOfSig",
              "type": "uint256"
            }
          ],
          "internalType": "struct multiSigWithThreshold.TransactionObj[]",
          "name": "",
          "type": "tuple[]"
        }
      ],
      "stateMutability": "view",
      "type": "function"
    },
    {
      "inputs": [
        {
          "internalType": "uint256",
          "name": "_txID",
          "type": "uint256"
        }
      ],
      "name": "getTxByID",
      "outputs": [
        {
          "components": [
            {
              "internalType": "address",
              "name": "to",
              "type": "address"
            },
            {
              "internalType": "uint256",
              "name": "amount",
              "type": "uint256"
            },
            {
              "internalType": "string",
              "name": "transactionType",
              "type": "string"
            },
            {
              "internalType": "bool",
              "name": "executed",
              "type": "bool"
            },
            {
              "internalType": "uint256",
              "name": "totalNumbersOfSig",
              "type": "uint256"
            }
          ],
          "internalType": "struct multiSigWithThreshold.TransactionObj",
          "name": "",
          "type": "tuple"
        }
      ],
      "stateMutability": "view",
      "type": "function"
    },
    {
      "inputs": [
        {
          "internalType": "string",
          "name": "_name",
          "type": "string"
        },
        {
          "internalType": "uint256",
          "name": "_weight",
          "type": "uint256"
        }
      ],
      "name": "addTxWeight",
      "outputs": [],
      "stateMutability": "nonpayable",
      "type": "function"
    },
    {
      "inputs": [
        {
          "internalType": "uint256",
          "name": "_txIndex",
          "type": "uint256"
        }
      ],
      "name": "revockSignerSig",
      "outputs": [],
      "stateMutability": "nonpayable",
      "type": "function"
    },
    {
      "inputs": [
        {
          "internalType": "address",
          "name": "_signerAdd",
          "type": "address"
        },
        {
          "internalType": "uint256",
          "name": "_weight",
          "type": "uint256"
        }
      ],
      "name": "addSignerWithWeight",
      "outputs": [],
      "stateMutability": "nonpayable",
      "type": "function"
    },
    {
      "inputs": [
        {
          "internalType": "address",
          "name": "_address",
          "type": "address"
        }
      ],
      "name": "getSignerByAddress",
      "outputs": [
        {
          "components": [
            {
              "internalType": "address",
              "name": "id",
              "type": "address"
            },
            {
              "internalType": "uint256",
              "name": "sigWeight",
              "type": "uint256"
            }
          ],
          "internalType": "struct multiSigWithThreshold.SignerList",
          "name": "",
          "type": "tuple"
        }
      ],
      "stateMutability": "view",
      "type": "function"
    },
    {
      "inputs": [
        {
          "internalType": "uint256",
          "name": "_txId",
          "type": "uint256"
        }
      ],
      "name": "signTransaction",
      "outputs": [],
      "stateMutability": "nonpayable",
      "type": "function"
    },
    {
      "inputs": [
        {
          "internalType": "uint256",
          "name": "_txIndex",
          "type": "uint256"
        }
      ],
      "name": "submitTransaction",
      "outputs": [],
      "stateMutability": "nonpayable",
      "type": "function"
    }
  ],
  "bytecode": "0x60806040523480156200001157600080fd5b506200003262000026620000b460201b60201c565b620000bc60201b60201c565b60006001604051620000449062000246565b9081526020016040518091039020819055506050600160405162000068906200025d565b908152602001604051809103902081905550603c60016040516200008c9062000274565b9081526020016040518091039020819055506000600781905550600060068190555062000296565b600033905090565b60008060009054906101000a900473ffffffffffffffffffffffffffffffffffffffff169050816000806101000a81548173ffffffffffffffffffffffffffffffffffffffff021916908373ffffffffffffffffffffffffffffffffffffffff1602179055508173ffffffffffffffffffffffffffffffffffffffff168173ffffffffffffffffffffffffffffffffffffffff167f8be0079c531659141344cd1fd0a4f28419497f9722a3daafe3b4186f6b6457e060405160405180910390a35050565b60006200018f6007836200028b565b91507f6465706f736974000000000000000000000000000000000000000000000000006000830152600782019050919050565b6000620001d1600a836200028b565b91507f7769746864726177616c000000000000000000000000000000000000000000006000830152600a82019050919050565b6000620002136008836200028b565b91507f7472616e736665720000000000000000000000000000000000000000000000006000830152600882019050919050565b6000620002538262000180565b9150819050919050565b60006200026a82620001c2565b9150819050919050565b6000620002818262000204565b9150819050919050565b600081905092915050565b61267780620002a66000396000f3fe6080604052600436106100f75760003560e01c806374f079b81161008a578063c34a0ead11610059578063c34a0ead14610321578063c50bafcc1461034a578063f2fde38b14610387578063ffa256f1146103b0576100fe565b806374f079b8146102635780638da5cb5b1461028e578063a613907b146102b9578063beed1420146102e4576100fe565b80635d9ec210116100c65780635d9ec210146101cf5780635ea8240c146101f857806365fea91f14610221578063715018a61461024c576100fe565b8063090c85a4146101035780630a09190e1461012c5780631277536a1461016957806323bb5f1314610192576100fe565b366100fe57005b600080fd5b34801561010f57600080fd5b5061012a60048036038101906101259190611935565b6103d9565b005b34801561013857600080fd5b50610153600480360381019061014e919061199c565b6105ae565b60405161016091906122ae565b60405180910390f35b34801561017557600080fd5b50610190600480360381019061018b91906118f9565b6105d6565b005b34801561019e57600080fd5b506101b960048036038101906101b4919061199c565b6107bd565b6040516101c691906122ae565b60405180910390f35b3480156101db57600080fd5b506101f660048036038101906101f19190611a31565b6107eb565b005b34801561020457600080fd5b5061021f600480360381019061021a91906119dd565b610b2c565b005b34801561022d57600080fd5b50610236610b8e565b604051610243919061214f565b60405180910390f35b34801561025857600080fd5b50610261610db7565b005b34801561026f57600080fd5b50610278610e3f565b60405161028591906122ae565b60405180910390f35b34801561029a57600080fd5b506102a3610e45565b6040516102b0919061201a565b60405180910390f35b3480156102c557600080fd5b506102ce610e6e565b6040516102db91906122ae565b60405180910390f35b3480156102f057600080fd5b5061030b60048036038101906103069190611a31565b610e74565b604051610318919061228c565b60405180910390f35b34801561032d57600080fd5b5061034860048036038101906103439190611a31565b610fb8565b005b34801561035657600080fd5b50610371600480360381019061036c91906118d0565b611259565b60405161037e9190612271565b60405180910390f35b34801561039357600080fd5b506103ae60048036038101906103a991906118d0565b611312565b005b3480156103bc57600080fd5b506103d760048036038101906103d29190611a31565b61140a565b005b600560003373ffffffffffffffffffffffffffffffffffffffff1673ffffffffffffffffffffffffffffffffffffffff16815260200190815260200160002060009054906101000a900460ff16610465576040517f08c379a000000000000000000000000000000000000000000000000000000000815260040161045c906121b1565b60405180910390fd5b6040518060a001604052808473ffffffffffffffffffffffffffffffffffffffff168152602001838152602001828152602001600015158152602001600081525060026000600754815260200190815260200160002060008201518160000160006101000a81548173ffffffffffffffffffffffffffffffffffffffff021916908373ffffffffffffffffffffffffffffffffffffffff160217905550602082015181600101556040820151816002019080519060200190610528929190611724565b5060608201518160030160006101000a81548160ff02191690831515021790555060808201518160040155905050600760008154809291906105699061252c565b91905055507fdbbd4f0c67e54f103bfd3b507c4183d751530b2336b6db66233eb37a6671b41a3383856040516105a19392919061209c565b60405180910390a1505050565b60006001826040516105c09190611fec565b9081526020016040518091039020549050919050565b6105de611658565b73ffffffffffffffffffffffffffffffffffffffff166105fc610e45565b73ffffffffffffffffffffffffffffffffffffffff1614610652576040517f08c379a000000000000000000000000000000000000000000000000000000000815260040161064990612211565b60405180910390fd5b60405180604001604052808373ffffffffffffffffffffffffffffffffffffffff16815260200182815250600360008473ffffffffffffffffffffffffffffffffffffffff1673ffffffffffffffffffffffffffffffffffffffff16815260200190815260200160002060008201518160000160006101000a81548173ffffffffffffffffffffffffffffffffffffffff021916908373ffffffffffffffffffffffffffffffffffffffff160217905550602082015181600101559050506001600560008473ffffffffffffffffffffffffffffffffffffffff1673ffffffffffffffffffffffffffffffffffffffff16815260200190815260200160002060006101000a81548160ff0219169083151502179055506006600081548092919061077b9061252c565b91905055507f50999ebf9b59bf3157a58816611976f2d723378ad51457d7b0413209e0cdee5982826040516107b1929190612073565b60405180910390a15050565b6001818051602081018201805184825260208301602085012081835280955050505050506000915090505481565b600560003373ffffffffffffffffffffffffffffffffffffffff1673ffffffffffffffffffffffffffffffffffffffff16815260200190815260200160002060009054906101000a900460ff16610877576040517f08c379a000000000000000000000000000000000000000000000000000000000815260040161086e906121b1565b60405180910390fd5b80806007541015801561088c57506000600754115b6108cb576040517f08c379a00000000000000000000000000000000000000000000000000000000081526004016108c290612251565b60405180910390fd5b816004600082815260200190815260200160002060003373ffffffffffffffffffffffffffffffffffffffff1673ffffffffffffffffffffffffffffffffffffffff16815260200190815260200160002060009054906101000a900460ff161561096a576040517f08c379a0000000000000000000000000000000000000000000000000000000008152600401610961906121f1565b60405180910390fd5b600060026000858152602001908152602001600020905060003390506000600360008373ffffffffffffffffffffffffffffffffffffffff1673ffffffffffffffffffffffffffffffffffffffff1681526020019081526020016000206040518060400160405290816000820160009054906101000a900473ffffffffffffffffffffffffffffffffffffffff1673ffffffffffffffffffffffffffffffffffffffff1673ffffffffffffffffffffffffffffffffffffffff16815260200160018201548152505090508060200151836004016000828254610a4c91906123b0565b9250508190555060016004600088815260200190815260200160002060003373ffffffffffffffffffffffffffffffffffffffff1673ffffffffffffffffffffffffffffffffffffffff16815260200190815260200160002060006101000a81548160ff0219169083151502179055506000600184600201604051610ad19190612003565b90815260200160405180910390205490507f1d7dde13fe5441b64328c9356ab10c4317d9a644bb7b79348910872c359c109d3388846020015184604051610b1b949392919061210a565b60405180910390a150505050505050565b80600183604051610b3d9190611fec565b9081526020016040518091039020819055507fda9bad9d7968e5b76a103033ee97f0352fb67a06e70bc6fcb986893ef24b5ed4338383604051610b8293929190612035565b60405180910390a15050565b6060600060075467ffffffffffffffff811115610bd4577f4e487b7100000000000000000000000000000000000000000000000000000000600052604160045260246000fd5b604051908082528060200260200182016040528015610c0d57816020015b610bfa6117aa565b815260200190600190039081610bf25790505b50905060005b600754811015610daf576000600260008381526020019081526020016000209050806040518060a00160405290816000820160009054906101000a900473ffffffffffffffffffffffffffffffffffffffff1673ffffffffffffffffffffffffffffffffffffffff1673ffffffffffffffffffffffffffffffffffffffff16815260200160018201548152602001600282018054610cb0906124fa565b80601f0160208091040260200160405190810160405280929190818152602001828054610cdc906124fa565b8015610d295780601f10610cfe57610100808354040283529160200191610d29565b820191906000526020600020905b815481529060010190602001808311610d0c57829003601f168201915b505050505081526020016003820160009054906101000a900460ff16151515158152602001600482015481525050838381518110610d90577f4e487b7100000000000000000000000000000000000000000000000000000000600052603260045260246000fd5b6020026020010181905250508080610da79061252c565b915050610c13565b508091505090565b610dbf611658565b73ffffffffffffffffffffffffffffffffffffffff16610ddd610e45565b73ffffffffffffffffffffffffffffffffffffffff1614610e33576040517f08c379a0000000000000000000000000000000000000000000000000000000008152600401610e2a90612211565b60405180910390fd5b610e3d6000611660565b565b60075481565b60008060009054906101000a900473ffffffffffffffffffffffffffffffffffffffff16905090565b60065481565b610e7c6117aa565b600260008381526020019081526020016000206040518060a00160405290816000820160009054906101000a900473ffffffffffffffffffffffffffffffffffffffff1673ffffffffffffffffffffffffffffffffffffffff1673ffffffffffffffffffffffffffffffffffffffff16815260200160018201548152602001600282018054610f0a906124fa565b80601f0160208091040260200160405190810160405280929190818152602001828054610f36906124fa565b8015610f835780601f10610f5857610100808354040283529160200191610f83565b820191906000526020600020905b815481529060010190602001808311610f6657829003601f168201915b505050505081526020016003820160009054906101000a900460ff161515151581526020016004820154815250509050919050565b600560003373ffffffffffffffffffffffffffffffffffffffff1673ffffffffffffffffffffffffffffffffffffffff16815260200190815260200160002060009054906101000a900460ff16611044576040517f08c379a000000000000000000000000000000000000000000000000000000000815260040161103b906121b1565b60405180910390fd5b80806007541015801561105957506000600754115b611098576040517f08c379a000000000000000000000000000000000000000000000000000000000815260040161108f90612251565b60405180910390fd5b816002600082815260200190815260200160002060030160009054906101000a900460ff16156110fd576040517f08c379a00000000000000000000000000000000000000000000000000000000081526004016110f4906121d1565b60405180910390fd5b600060026000858152602001908152602001600020905060006001826002016040516111299190612003565b90815260200160405180910390205490508082600401541015611181576040517f08c379a000000000000000000000000000000000000000000000000000000000815260040161117890612231565b60405180910390fd5b60008260000160009054906101000a900473ffffffffffffffffffffffffffffffffffffffff1690508073ffffffffffffffffffffffffffffffffffffffff166108fc84600101549081150290604051600060405180830381858888f193505050501580156111f4573d6000803e3d6000fd5b5060018360030160006101000a81548160ff0219169083151502179055507f5d322aa413eb32efd4a9c0be149a65487b54804ead807d802631b2cb2c5321c630846001015483604051611249939291906120d3565b60405180910390a1505050505050565b6112616117f1565b600360008373ffffffffffffffffffffffffffffffffffffffff1673ffffffffffffffffffffffffffffffffffffffff1681526020019081526020016000206040518060400160405290816000820160009054906101000a900473ffffffffffffffffffffffffffffffffffffffff1673ffffffffffffffffffffffffffffffffffffffff1673ffffffffffffffffffffffffffffffffffffffff1681526020016001820154815250509050919050565b61131a611658565b73ffffffffffffffffffffffffffffffffffffffff16611338610e45565b73ffffffffffffffffffffffffffffffffffffffff161461138e576040517f08c379a000000000000000000000000000000000000000000000000000000000815260040161138590612211565b60405180910390fd5b600073ffffffffffffffffffffffffffffffffffffffff168173ffffffffffffffffffffffffffffffffffffffff1614156113fe576040517f08c379a00000000000000000000000000000000000000000000000000000000081526004016113f590612191565b60405180910390fd5b61140781611660565b50565b600560003373ffffffffffffffffffffffffffffffffffffffff1673ffffffffffffffffffffffffffffffffffffffff16815260200190815260200160002060009054906101000a900460ff16611496576040517f08c379a000000000000000000000000000000000000000000000000000000000815260040161148d906121b1565b60405180910390fd5b806004600082815260200190815260200160002060003373ffffffffffffffffffffffffffffffffffffffff1673ffffffffffffffffffffffffffffffffffffffff16815260200190815260200160002060009054906101000a900460ff16611534576040517f08c379a000000000000000000000000000000000000000000000000000000000815260040161152b90612171565b60405180910390fd5b60006002600084815260200190815260200160002090506000600360003373ffffffffffffffffffffffffffffffffffffffff1673ffffffffffffffffffffffffffffffffffffffff16815260200190815260200160002060010154905060008183600401546115a49190612406565b905080836004018190555060006004600087815260200190815260200160002060003373ffffffffffffffffffffffffffffffffffffffff1673ffffffffffffffffffffffffffffffffffffffff16815260200190815260200160002060006101000a81548160ff0219169083151502179055507f6e6180ac33a40129fce08928a0b19e1a8811dccf83afd9ab4496df48c3be1b053383604051611649929190612073565b60405180910390a15050505050565b600033905090565b60008060009054906101000a900473ffffffffffffffffffffffffffffffffffffffff169050816000806101000a81548173ffffffffffffffffffffffffffffffffffffffff021916908373ffffffffffffffffffffffffffffffffffffffff1602179055508173ffffffffffffffffffffffffffffffffffffffff168173ffffffffffffffffffffffffffffffffffffffff167f8be0079c531659141344cd1fd0a4f28419497f9722a3daafe3b4186f6b6457e060405160405180910390a35050565b828054611730906124fa565b90600052602060002090601f0160209004810192826117525760008555611799565b82601f1061176b57805160ff1916838001178555611799565b82800160010185558215611799579182015b8281111561179857825182559160200191906001019061177d565b5b5090506117a69190611821565b5090565b6040518060a00160405280600073ffffffffffffffffffffffffffffffffffffffff1681526020016000815260200160608152602001600015158152602001600081525090565b6040518060400160405280600073ffffffffffffffffffffffffffffffffffffffff168152602001600081525090565b5b8082111561183a576000816000905550600101611822565b5090565b600061185161184c846122fa565b6122c9565b90508281526020810184848401111561186957600080fd5b6118748482856124b8565b509392505050565b60008135905061188b81612613565b92915050565b600082601f8301126118a257600080fd5b81356118b284826020860161183e565b91505092915050565b6000813590506118ca8161262a565b92915050565b6000602082840312156118e257600080fd5b60006118f08482850161187c565b91505092915050565b6000806040838503121561190c57600080fd5b600061191a8582860161187c565b925050602061192b858286016118bb565b9150509250929050565b60008060006060848603121561194a57600080fd5b60006119588682870161187c565b9350506020611969868287016118bb565b925050604084013567ffffffffffffffff81111561198657600080fd5b61199286828701611891565b9150509250925092565b6000602082840312156119ae57600080fd5b600082013567ffffffffffffffff8111156119c857600080fd5b6119d484828501611891565b91505092915050565b600080604083850312156119f057600080fd5b600083013567ffffffffffffffff811115611a0a57600080fd5b611a1685828601611891565b9250506020611a27858286016118bb565b9150509250929050565b600060208284031215611a4357600080fd5b6000611a51848285016118bb565b91505092915050565b6000611a668383611ee2565b905092915050565b611a7781612482565b82525050565b611a868161243a565b82525050565b611a958161243a565b82525050565b6000611aa68261234f565b611ab08185612372565b935083602082028501611ac28561232a565b8060005b85811015611afe5784840389528151611adf8582611a5a565b9450611aea83612365565b925060208a01995050600181019050611ac6565b50829750879550505050505092915050565b611b198161244c565b82525050565b6000611b2a8261235a565b611b348185612383565b9350611b448185602086016124c7565b611b4d81612602565b840191505092915050565b6000611b638261235a565b611b6d8185612394565b9350611b7d8185602086016124c7565b611b8681612602565b840191505092915050565b6000611b9c8261235a565b611ba681856123a5565b9350611bb68185602086016124c7565b80840191505092915050565b60008154611bcf816124fa565b611bd981866123a5565b94506001821660008114611bf45760018114611c0557611c38565b60ff19831686528186019350611c38565b611c0e8561233a565b60005b83811015611c3057815481890152600182019150602081019050611c11565b838801955050505b50505092915050565b6000611c4e602483612394565b91507f596f752068617665206e6f74207369676e65642074686973207472616e73616360008301527f74696f6e000000000000000000000000000000000000000000000000000000006020830152604082019050919050565b6000611cb4602683612394565b91507f4f776e61626c653a206e6577206f776e657220697320746865207a65726f206160008301527f64647265737300000000000000000000000000000000000000000000000000006020830152604082019050919050565b6000611d1a600c83612394565b91507f4e6f742061205369676e657200000000000000000000000000000000000000006000830152602082019050919050565b6000611d5a601d83612394565b91507f7472616e73616374696f6e20616c7265616479207375626d69747465640000006000830152602082019050919050565b6000611d9a601983612394565b91507f4164647265737320616c7265616479205369676e6564205478000000000000006000830152602082019050919050565b6000611dda602083612394565b91507f4f776e61626c653a2063616c6c6572206973206e6f7420746865206f776e65726000830152602082019050919050565b6000611e1a603583612394565b91507f6e656564206d6f7265207369676e657220746f207369676e207472616e73616360008301527f74696f6e206265666f726520657865637574696f6e00000000000000000000006020830152604082019050919050565b6000611e80601483612394565b91507f4e6f2056616c6964205472616e73616374696f6e0000000000000000000000006000830152602082019050919050565b604082016000820151611ec96000850182611a7d565b506020820151611edc6020850182611fce565b50505050565b600060a083016000830151611efa6000860182611a7d565b506020830151611f0d6020860182611fce565b5060408301518482036040860152611f258282611b1f565b9150506060830151611f3a6060860182611b10565b506080830151611f4d6080860182611fce565b508091505092915050565b600060a083016000830151611f706000860182611a7d565b506020830151611f836020860182611fce565b5060408301518482036040860152611f9b8282611b1f565b9150506060830151611fb06060860182611b10565b506080830151611fc36080860182611fce565b508091505092915050565b611fd781612478565b82525050565b611fe681612478565b82525050565b6000611ff88284611b91565b915081905092915050565b600061200f8284611bc2565b915081905092915050565b600060208201905061202f6000830184611a8c565b92915050565b600060608201905061204a6000830186611a8c565b818103602083015261205c8185611b58565b905061206b6040830184611fdd565b949350505050565b60006040820190506120886000830185611a8c565b6120956020830184611fdd565b9392505050565b60006060820190506120b16000830186611a8c565b6120be6020830185611fdd565b6120cb6040830184611a8c565b949350505050565b60006060820190506120e86000830186611a8c565b6120f56020830185611fdd565b6121026040830184611a6e565b949350505050565b600060808201905061211f6000830187611a8c565b61212c6020830186611fdd565b6121396040830185611fdd565b6121466060830184611fdd565b95945050505050565b600060208201905081810360008301526121698184611a9b565b905092915050565b6000602082019050818103600083015261218a81611c41565b9050919050565b600060208201905081810360008301526121aa81611ca7565b9050919050565b600060208201905081810360008301526121ca81611d0d565b9050919050565b600060208201905081810360008301526121ea81611d4d565b9050919050565b6000602082019050818103600083015261220a81611d8d565b9050919050565b6000602082019050818103600083015261222a81611dcd565b9050919050565b6000602082019050818103600083015261224a81611e0d565b9050919050565b6000602082019050818103600083015261226a81611e73565b9050919050565b60006040820190506122866000830184611eb3565b92915050565b600060208201905081810360008301526122a68184611f58565b905092915050565b60006020820190506122c36000830184611fdd565b92915050565b6000604051905081810181811067ffffffffffffffff821117156122f0576122ef6125d3565b5b8060405250919050565b600067ffffffffffffffff821115612315576123146125d3565b5b601f19601f8301169050602081019050919050565b6000819050602082019050919050565b60008190508160005260206000209050919050565b600081519050919050565b600081519050919050565b6000602082019050919050565b600082825260208201905092915050565b600082825260208201905092915050565b600082825260208201905092915050565b600081905092915050565b60006123bb82612478565b91506123c683612478565b9250827fffffffffffffffffffffffffffffffffffffffffffffffffffffffffffffffff038211156123fb576123fa612575565b5b828201905092915050565b600061241182612478565b915061241c83612478565b92508282101561242f5761242e612575565b5b828203905092915050565b600061244582612458565b9050919050565b60008115159050919050565b600073ffffffffffffffffffffffffffffffffffffffff82169050919050565b6000819050919050565b600061248d82612494565b9050919050565b600061249f826124a6565b9050919050565b60006124b182612458565b9050919050565b82818337600083830152505050565b60005b838110156124e55780820151818401526020810190506124ca565b838111156124f4576000848401525b50505050565b6000600282049050600182168061251257607f821691505b60208210811415612526576125256125a4565b5b50919050565b600061253782612478565b91507fffffffffffffffffffffffffffffffffffffffffffffffffffffffffffffffff82141561256a57612569612575565b5b600182019050919050565b7f4e487b7100000000000000000000000000000000000000000000000000000000600052601160045260246000fd5b7f4e487b7100000000000000000000000000000000000000000000000000000000600052602260045260246000fd5b7f4e487b7100000000000000000000000000000000000000000000000000000000600052604160045260246000fd5b6000601f19601f8301169050919050565b61261c8161243a565b811461262757600080fd5b50565b61263381612478565b811461263e57600080fd5b5056fea264697066735822122084cd82200253e1c47c6c842b7f56c547612abe3fe56fc725fb9dbc2ee85b175564736f6c63430008000033",
  "immutableReferences": {},
  "source": "// SPDX-License-Identifier: MIT\npragma solidity >=0.4.22 <0.9.0;\n\n//can Add Transaction and threshold for TX\n// can add signer and weight\n// can add new transaction Type\n// get a transaction count\n// get all transactions\n// get signer count\n// get signer using their address\n// get tx using their index\n// transaction Threshold\n//Submit tx if threshold is meant\n\n//// revock signed tx\n//get all transaction\n\nimport \"@openzeppelin/contracts/access/Ownable.sol\";\n\ncontract multiSigWithThreshold is Ownable  {\n\n    //Mapping for transactions List, shows all type of transactions\n    mapping(string => uint) public transactionTypeList;\n\n    //Mapping for All TRansactions\n    mapping(uint => TransactionObj) listOfAllTransactions;\n\n    //\n\n    //Modifier to check if the sender has the right weight to call functions\n\n    struct TransactionObj{\n        address to;\n        uint amount;\n        string transactionType;\n        bool executed;\n        uint totalNumbersOfSig;\n    }\n    struct SignerList{\n        address id;\n        uint sigWeight;\n    }\n    event TransactionSubmitted(address _sender, uint _amt, address _receiver);\n    event SignerAdded(address _signerAdd, uint _signerWeight);\n    event TransactionAdded(address _adder, uint _amount, address _to);\n    event TransactionSigned(address _signer, uint _txIndex, uint _signerWeight, uint _requiredThreshold);\n    event NewTypeOfTransactionAdded(address _sender, string _txName, uint _requiredThreshold);\n    event revockSignature(address _sender, uint _weightRemove);\n\n    mapping(address => SignerList) AllSigners;\n    mapping(uint => mapping(address => bool)) isSigned; //if Tx is signed\n    mapping(address => bool) addressIsASigner; // Need to get the address specific index numder to work perfectly\n    uint public signerCounter;\n\n    // TransactionObj[] private listOfAllTransactions;\n    //Counter for Transaction\n    uint public txCounter;\n\n\n    modifier isTxSigned(uint _txID){\n        require(!isSigned[_txID][msg.sender], \"Address already Signed Tx\");\n        _;\n    }\n    modifier isAddrASigner(){\n        require(addressIsASigner[msg.sender], \"Not a Signer\");\n        _;\n    }\n\n    modifier TxNotExecuted(uint _txIndex){\n        require(!listOfAllTransactions[_txIndex].executed, \"transaction already submitted\");\n        _;\n    }\n    modifier hasAddrSignedTx(uint _txIndex){\n        require(isSigned[_txIndex][msg.sender], \"You have not signed this transaction\");\n        _;\n    }\n    modifier isTransactionAvailable(uint _txIndex){\n        require(txCounter >= _txIndex && txCounter > 0, \"No Valid Transaction\");\n        _;\n    }\n    //Check if we have a valid transaction\n\n\n    // Contructor takes numbers of address, their weight. We use a pre-defined threshold for all type of transactions\n    // The threshold is the number of signatures required to approve a transaction\n\n    constructor(){\n        // Owner = msg.sender;\n        transactionTypeList[\"deposit\"] = 0;\n        transactionTypeList[\"withdrawal\"] = 80;\n        transactionTypeList[\"transfer\"] = 60;\n        txCounter =0;\n        signerCounter =0;\n    }\n\n    // Need to Restrict the add signer method to only owner\n    // allowing smart contrcat to recieve eth\n\n\n     receive() external payable {}\n\n\n// ===============================================================================\n                // TRANSACTIONS\n// ===============================================================================\n\n\n    // Add a new Transaction for signing\n    function addTransaction(address _to, uint _amt, string memory _transactionType ) public isAddrASigner {\n\n        // modifier to automatically check transaction type\n        listOfAllTransactions[txCounter] = TransactionObj({\n            to: _to,\n            amount:_amt,\n            executed: false,\n            transactionType: _transactionType,\n            totalNumbersOfSig:0\n\n        });\n\n        txCounter++;\n        emit TransactionAdded(msg.sender, _amt, _to);\n    }\n\n    //Method to check if transaction exist and if yes, it returns it threshold\n    // add modiers to check if transaction exist in our list of tx, if not we return an error\n    function getTxWeight(string memory _txName) public view returns (uint){\n        return transactionTypeList[_txName];\n    }\n\n\n    // return a tuple of all availabe transaction and their details including signature\n    function getAllTranactions() public view returns (TransactionObj[] memory){\n        TransactionObj[] memory transactionobj = new TransactionObj[](txCounter);\n        for (uint i = 0; i < txCounter; i++) {\n            TransactionObj storage txobjs = listOfAllTransactions[i];\n            transactionobj[i] = txobjs;\n        }\n        return transactionobj;\n    }\n    //This get transaction by it index number\n    function getTxByID(uint _txID) public view returns(TransactionObj memory) {\n        return listOfAllTransactions[_txID];\n    }\n\n    //This adds a specific new type of transaction type and also the weight threshold required to execute\n    function addTxWeight(string memory _name, uint _weight) public {\n        transactionTypeList[_name]=_weight;\n        emit NewTypeOfTransactionAdded(msg.sender, _name, _weight);\n    }\n\n    function revockSignerSig(uint _txIndex) public isAddrASigner hasAddrSignedTx(_txIndex){\n        TransactionObj storage _tx = listOfAllTransactions[_txIndex];\n        uint addressWeight = AllSigners[msg.sender].sigWeight;\n        uint newTxvalue = _tx.totalNumbersOfSig - addressWeight;\n        _tx.totalNumbersOfSig = newTxvalue;\n        isSigned[_txIndex][msg.sender] = false;\n\n        emit revockSignature(msg.sender, addressWeight);\n    }\n\n// ===============================================================================\n            // SIGNERS\n// ===============================================================================\n\n      //This add a specific address and their weight\n    function addSignerWithWeight(address _signerAdd, uint _weight) public onlyOwner {\n        AllSigners[_signerAdd] = SignerList({ id:_signerAdd, sigWeight: _weight});\n        addressIsASigner[_signerAdd] = true;\n        signerCounter++;\n        emit SignerAdded(_signerAdd, _weight);\n    }\n\n\n    //get signer by their index and return their address and weight\n    function getSignerByAddress(address _address )public view returns (SignerList memory){\n        return AllSigners[_address];\n    }\n\n\n    //this should all address to sign transaction\n    function signTransaction(uint _txId) public isAddrASigner isTransactionAvailable(_txId) isTxSigned (_txId) {\n        TransactionObj storage txToSign = listOfAllTransactions[_txId];\n        address _signerAddress = msg.sender;\n        SignerList memory _signer = AllSigners[_signerAddress];\n        txToSign.totalNumbersOfSig += _signer.sigWeight;\n        isSigned[_txId][msg.sender] = true;\n        uint txrequiredThreashold = transactionTypeList[txToSign.transactionType];\n\n        emit TransactionSigned(msg.sender, _txId, _signer.sigWeight, txrequiredThreashold);\n\n    }\n\n    // //this should all users to submit transaction if weidgt meets the threshold of the transaction type\n    function submitTransaction(uint _txIndex) public isAddrASigner isTransactionAvailable(_txIndex) TxNotExecuted(_txIndex) {\n        TransactionObj storage _txToSubmit = listOfAllTransactions[_txIndex];\n        uint _txThreshold = transactionTypeList[_txToSubmit.transactionType];\n        require(_txToSubmit.totalNumbersOfSig >= _txThreshold, \"need more signer to sign transaction before execution\");\n        address payable recipientAddres = payable(_txToSubmit.to);\n        recipientAddres.transfer(_txToSubmit.amount);\n        _txToSubmit.executed = true;\n        emit TransactionSubmitted(address(this), _txToSubmit.amount, recipientAddres);\n    }\n}\n\n\n",
  "sourcePath": "/Users/afolabi/blockchaindev/blockchain-developer-bootcamp-final-project/contracts/multiSigWithThreshold.sol",
  "compiler": {
    "name": "solc",
    "version": "0.8.0+commit.c7dfd78e.Emscripten.clang"
  },
  "schemaVersion": "3.4.4",
  "updatedAt": "2022-04-12T18:03:10.117Z",
  "devdoc": {
    "kind": "dev",
    "methods": {
      "owner()": {
        "details": "Returns the address of the current owner."
      },
      "renounceOwnership()": {
        "details": "Leaves the contract without owner. It will not be possible to call `onlyOwner` functions anymore. Can only be called by the current owner. NOTE: Renouncing ownership will leave the contract without an owner, thereby removing any functionality that is only available to the owner."
      },
      "transferOwnership(address)": {
        "details": "Transfers ownership of the contract to a new account (`newOwner`). Can only be called by the current owner."
      }
    },
    "version": 1
  },
  "userdoc": {
    "kind": "user",
    "methods": {},
    "version": 1
  }
}