{
  "contractName": "TodoList",
  "abi": [
    {
      "anonymous": false,
      "inputs": [],
      "name": "LogTasksUpdated",
      "type": "event"
    },
    {
      "anonymous": false,
      "inputs": [
        {
          "indexed": true,
          "internalType": "address",
          "name": "previousOwner",
          "type": "address"
        },
        {
          "indexed": true,
          "internalType": "address",
          "name": "newOwner",
          "type": "address"
        }
      ],
      "name": "OwnershipTransferred",
      "type": "event"
    },
    {
      "anonymous": false,
      "inputs": [
        {
          "indexed": false,
          "internalType": "address",
          "name": "account",
          "type": "address"
        }
      ],
      "name": "Paused",
      "type": "event"
    },
    {
      "anonymous": false,
      "inputs": [
        {
          "indexed": false,
          "internalType": "address",
          "name": "account",
          "type": "address"
        }
      ],
      "name": "Unpaused",
      "type": "event"
    },
    {
      "stateMutability": "payable",
      "type": "fallback",
      "payable": true
    },
    {
      "inputs": [],
      "name": "PUNISHMENT_TIME",
      "outputs": [
        {
          "internalType": "uint256",
          "name": "",
          "type": "uint256"
        }
      ],
      "stateMutability": "view",
      "type": "function",
      "constant": true
    },
    {
      "inputs": [],
      "name": "getPrize",
      "outputs": [
        {
          "internalType": "uint256",
          "name": "",
          "type": "uint256"
        }
      ],
      "stateMutability": "view",
      "type": "function",
      "constant": true
    },
    {
      "inputs": [],
      "name": "owner",
      "outputs": [
        {
          "internalType": "address",
          "name": "",
          "type": "address"
        }
      ],
      "stateMutability": "view",
      "type": "function",
      "constant": true
    },
    {
      "inputs": [],
      "name": "paused",
      "outputs": [
        {
          "internalType": "bool",
          "name": "",
          "type": "bool"
        }
      ],
      "stateMutability": "view",
      "type": "function",
      "constant": true
    },
    {
      "inputs": [
        {
          "internalType": "address",
          "name": "",
          "type": "address"
        }
      ],
      "name": "prizes",
      "outputs": [
        {
          "internalType": "uint256",
          "name": "",
          "type": "uint256"
        }
      ],
      "stateMutability": "view",
      "type": "function",
      "constant": true
    },
    {
      "inputs": [],
      "name": "renounceOwnership",
      "outputs": [],
      "stateMutability": "nonpayable",
      "type": "function"
    },
    {
      "inputs": [
        {
          "internalType": "address",
          "name": "",
          "type": "address"
        },
        {
          "internalType": "uint256",
          "name": "",
          "type": "uint256"
        }
      ],
      "name": "tasks",
      "outputs": [
        {
          "internalType": "string",
          "name": "description",
          "type": "string"
        },
        {
          "internalType": "uint256",
          "name": "createdAt",
          "type": "uint256"
        },
        {
          "internalType": "uint256",
          "name": "value",
          "type": "uint256"
        },
        {
          "internalType": "uint256",
          "name": "dueDate",
          "type": "uint256"
        },
        {
          "internalType": "bool",
          "name": "completed",
          "type": "bool"
        },
        {
          "internalType": "bool",
          "name": "cleared",
          "type": "bool"
        }
      ],
      "stateMutability": "view",
      "type": "function",
      "constant": true
    },
    {
      "inputs": [
        {
          "internalType": "address",
          "name": "newOwner",
          "type": "address"
        }
      ],
      "name": "transferOwnership",
      "outputs": [],
      "stateMutability": "nonpayable",
      "type": "function"
    },
    {
      "inputs": [
        {
          "internalType": "uint256",
          "name": "withdrawAmount",
          "type": "uint256"
        }
      ],
      "name": "withdrawPrize",
      "outputs": [
        {
          "internalType": "uint256",
          "name": "",
          "type": "uint256"
        }
      ],
      "stateMutability": "nonpayable",
      "type": "function"
    },
    {
      "stateMutability": "payable",
      "type": "receive",
      "payable": true
    },
    {
      "inputs": [],
      "name": "getTasks",
      "outputs": [
        {
          "components": [
            {
              "internalType": "string",
              "name": "description",
              "type": "string"
            },
            {
              "internalType": "uint256",
              "name": "createdAt",
              "type": "uint256"
            },
            {
              "internalType": "uint256",
              "name": "value",
              "type": "uint256"
            },
            {
              "internalType": "uint256",
              "name": "dueDate",
              "type": "uint256"
            },
            {
              "internalType": "bool",
              "name": "completed",
              "type": "bool"
            },
            {
              "internalType": "bool",
              "name": "cleared",
              "type": "bool"
            }
          ],
          "internalType": "struct MainTasks.Task[]",
          "name": "",
          "type": "tuple[]"
        }
      ],
      "stateMutability": "view",
      "type": "function",
      "constant": true
    },
    {
      "inputs": [
        {
          "internalType": "string",
          "name": "_description",
          "type": "string"
        },
        {
          "internalType": "uint256",
          "name": "_dueDate",
          "type": "uint256"
        }
      ],
      "name": "add",
      "outputs": [],
      "stateMutability": "nonpayable",
      "type": "function"
    },
    {
      "inputs": [
        {
          "internalType": "uint256",
          "name": "_id",
          "type": "uint256"
        }
      ],
      "name": "setComplete",
      "outputs": [],
      "stateMutability": "nonpayable",
      "type": "function"
    },
    {
      "inputs": [
        {
          "internalType": "uint256",
          "name": "_id",
          "type": "uint256"
        }
      ],
      "name": "remove",
      "outputs": [],
      "stateMutability": "nonpayable",
      "type": "function"
    },
    {
      "inputs": [
        {
          "internalType": "uint256",
          "name": "_id",
          "type": "uint256"
        }
      ],
      "name": "setPrize",
      "outputs": [],
      "stateMutability": "payable",
      "type": "function",
      "payable": true
    },
    {
      "inputs": [
        {
          "internalType": "uint256",
          "name": "_id",
          "type": "uint256"
        }
      ],
      "name": "clear",
      "outputs": [],
      "stateMutability": "nonpayable",
      "type": "function"
    },
    {
      "inputs": [],
      "name": "pause",
      "outputs": [],
      "stateMutability": "nonpayable",
      "type": "function"
    },
    {
      "inputs": [],
      "name": "unpause",
      "outputs": [],
      "stateMutability": "nonpayable",
      "type": "function"
    }
  ],
  "bytecode": "0x60806040523480156200001157600080fd5b5060016000819055506200003a6200002e6200005b60201b60201c565b6200006360201b60201c565b6000600260146101000a81548160ff02191690831515021790555062000129565b600033905090565b6000600260009054906101000a900473ffffffffffffffffffffffffffffffffffffffff16905081600260006101000a81548173ffffffffffffffffffffffffffffffffffffffff021916908373ffffffffffffffffffffffffffffffffffffffff1602179055508173ffffffffffffffffffffffffffffffffffffffff168173ffffffffffffffffffffffffffffffffffffffff167f8be0079c531659141344cd1fd0a4f28419497f9722a3daafe3b4186f6b6457e060405160405180910390a35050565b61267e80620001396000396000f3fe6080604052600436106101025760003560e01c80638456cb5911610095578063b35d11bf11610064578063b35d11bf146102db578063c0fe1af814610318578063c20eec7b14610341578063c34f6b0d1461037e578063f2fde38b146103a95761010c565b80638456cb591461024557806389e8491f1461025c5780638ced8132146102855780638da5cb5b146102b05761010c565b80635c975abb116100d15780635c975abb146101a55780636ca7f3ba146101d05780637149d2e4146101ec578063715018a61461022e5761010c565b806304a87e381461011157806336555b851461013c5780633f4ba83a146101655780634cc822151461017c5761010c565b3661010c57600080fd5b600080fd5b34801561011d57600080fd5b506101266103d2565b604051610133919061216f565b60405180910390f35b34801561014857600080fd5b50610163600480360381019061015e9190611c62565b6103e1565b005b34801561017157600080fd5b5061017a6103ef565b005b34801561018857600080fd5b506101a3600480360381019061019e9190611cb6565b610475565b005b3480156101b157600080fd5b506101ba610481565b6040516101c79190612191565b60405180910390f35b6101ea60048036038101906101e59190611cb6565b610498565b005b3480156101f857600080fd5b50610213600480360381019061020e9190611c26565b6104a4565b604051610225969594939291906121ac565b60405180910390f35b34801561023a57600080fd5b5061024361059f565b005b34801561025157600080fd5b5061025a610627565b005b34801561026857600080fd5b50610283600480360381019061027e9190611cb6565b6106ad565b005b34801561029157600080fd5b5061029a6106b9565b6040516102a79190612354565b60405180910390f35b3480156102bc57600080fd5b506102c56106be565b6040516102d29190612154565b60405180910390f35b3480156102e757600080fd5b5061030260048036038101906102fd9190611bfd565b6106e8565b60405161030f9190612354565b60405180910390f35b34801561032457600080fd5b5061033f600480360381019061033a9190611cb6565b610700565b005b34801561034d57600080fd5b5061036860048036038101906103639190611cb6565b61070c565b6040516103759190612354565b60405180910390f35b34801561038a57600080fd5b506103936107ce565b6040516103a09190612354565b60405180910390f35b3480156103b557600080fd5b506103d060048036038101906103cb9190611bfd565b610815565b005b60606103dc61090d565b905090565b6103eb8282610a8f565b5050565b6103f7610bf7565b73ffffffffffffffffffffffffffffffffffffffff166104156106be565b73ffffffffffffffffffffffffffffffffffffffff161461046b576040517f08c379a0000000000000000000000000000000000000000000000000000000008152600401610462906122d4565b60405180910390fd5b610473610bff565b565b61047e81610ca1565b50565b6000600260149054906101000a900460ff16905090565b6104a181610fc8565b50565b600360205281600052604060002081815481106104c057600080fd5b9060005260206000209060050201600091509150508060000180546104e49061254a565b80601f01602080910402602001604051908101604052809291908181526020018280546105109061254a565b801561055d5780601f106105325761010080835404028352916020019161055d565b820191906000526020600020905b81548152906001019060200180831161054057829003601f168201915b5050505050908060010154908060020154908060030154908060040160009054906101000a900460ff16908060040160019054906101000a900460ff16905086565b6105a7610bf7565b73ffffffffffffffffffffffffffffffffffffffff166105c56106be565b73ffffffffffffffffffffffffffffffffffffffff161461061b576040517f08c379a0000000000000000000000000000000000000000000000000000000008152600401610612906122d4565b60405180910390fd5b61062560006110bb565b565b61062f610bf7565b73ffffffffffffffffffffffffffffffffffffffff1661064d6106be565b73ffffffffffffffffffffffffffffffffffffffff16146106a3576040517f08c379a000000000000000000000000000000000000000000000000000000000815260040161069a906122d4565b60405180910390fd5b6106ab611181565b565b6106b681611224565b50565b603c81565b6000600260009054906101000a900473ffffffffffffffffffffffffffffffffffffffff16905090565b60016020528060005260406000206000915090505481565b61070981611333565b50565b6000816107176107ce565b101561072257600080fd5b81600160003373ffffffffffffffffffffffffffffffffffffffff1673ffffffffffffffffffffffffffffffffffffffff1681526020019081526020016000206000828254610771919061248c565b925050819055503373ffffffffffffffffffffffffffffffffffffffff166108fc839081150290604051600060405180830381858888f193505050501580156107be573d6000803e3d6000fd5b506107c76107ce565b9050919050565b6000600160003373ffffffffffffffffffffffffffffffffffffffff1673ffffffffffffffffffffffffffffffffffffffff16815260200190815260200160002054905090565b61081d610bf7565b73ffffffffffffffffffffffffffffffffffffffff1661083b6106be565b73ffffffffffffffffffffffffffffffffffffffff1614610891576040517f08c379a0000000000000000000000000000000000000000000000000000000008152600401610888906122d4565b60405180910390fd5b600073ffffffffffffffffffffffffffffffffffffffff168173ffffffffffffffffffffffffffffffffffffffff161415610901576040517f08c379a00000000000000000000000000000000000000000000000000000000081526004016108f890612274565b60405180910390fd5b61090a816110bb565b50565b6060600360003373ffffffffffffffffffffffffffffffffffffffff1673ffffffffffffffffffffffffffffffffffffffff168152602001908152602001600020805480602002602001604051908101604052809291908181526020016000905b82821015610a8657838290600052602060002090600502016040518060c00160405290816000820180546109a19061254a565b80601f01602080910402602001604051908101604052809291908181526020018280546109cd9061254a565b8015610a1a5780601f106109ef57610100808354040283529160200191610a1a565b820191906000526020600020905b8154815290600101906020018083116109fd57829003601f168201915b505050505081526020016001820154815260200160028201548152602001600382015481526020016004820160009054906101000a900460ff161515151581526020016004820160019054906101000a900460ff1615151515815250508152602001906001019061096e565b50505050905090565b806000811480610a9e57504281115b610aa757600080fd5b60006040518060c0016040528085815260200142815260200160008152602001848152602001600015158152602001600115158152509050600360003373ffffffffffffffffffffffffffffffffffffffff1673ffffffffffffffffffffffffffffffffffffffff1681526020019081526020016000208190806001815401808255809150506001900390600052602060002090600502016000909190919091506000820151816000019080519060200190610b649291906119c1565b5060208201518160010155604082015181600201556060820151816003015560808201518160040160006101000a81548160ff02191690831515021790555060a08201518160040160016101000a81548160ff02191690831515021790555050507ff1d942a3aa0252ca9653f82dac1b78fedc485a12a7f7ce983e614d3914e7114560405160405180910390a150505050565b600033905090565b610c07610481565b610c46576040517f08c379a0000000000000000000000000000000000000000000000000000000008152600401610c3d90612254565b60405180910390fd5b6000600260146101000a81548160ff0219169083151502179055507f5db9ee0a495bf2e6ff9c91a7834c1ba4fdd244a5e8aa4e537bd38aeae4b073aa610c8a610bf7565b604051610c979190612154565b60405180910390a1565b80610cab81611445565b15610cb557600080fd5b6000600360003373ffffffffffffffffffffffffffffffffffffffff1673ffffffffffffffffffffffffffffffffffffffff168152602001908152602001600020805490509050808310610d0857600080fd5b600360003373ffffffffffffffffffffffffffffffffffffffff1673ffffffffffffffffffffffffffffffffffffffff168152602001908152602001600020600182610d54919061248c565b81548110610d8b577f4e487b7100000000000000000000000000000000000000000000000000000000600052603260045260246000fd5b9060005260206000209060050201600360003373ffffffffffffffffffffffffffffffffffffffff1673ffffffffffffffffffffffffffffffffffffffff1681526020019081526020016000208481548110610e10577f4e487b7100000000000000000000000000000000000000000000000000000000600052603260045260246000fd5b90600052602060002090600502016000820181600001908054610e329061254a565b610e3d929190611a47565b506001820154816001015560028201548160020155600382015481600301556004820160009054906101000a900460ff168160040160006101000a81548160ff0219169083151502179055506004820160019054906101000a900460ff168160040160016101000a81548160ff021916908315150217905550905050600360003373ffffffffffffffffffffffffffffffffffffffff1673ffffffffffffffffffffffffffffffffffffffff168152602001908152602001600020805480610f2e577f4e487b7100000000000000000000000000000000000000000000000000000000600052603160045260246000fd5b600190038181906000526020600020906005020160008082016000610f539190611ad4565b6001820160009055600282016000905560038201600090556004820160006101000a81549060ff02191690556004820160016101000a81549060ff0219169055505090557ff1d942a3aa0252ca9653f82dac1b78fedc485a12a7f7ce983e614d3914e7114560405160405180910390a1505050565b806000610fd482611479565b606001511415610fe357600080fd5b81610fed81611479565b6080015115610ffb57600080fd5b611003610481565b15611043576040517f08c379a000000000000000000000000000000000000000000000000000000000815260040161103a906122b4565b60405180910390fd5b600061104e84611479565b9050600081604001511461106157600080fd5b61106a8461164c565b1561107457600080fd5b8060a0015161108257600080fd5b600034141561109057600080fd5b3481604001818152505060008160a00190151590811515815250506110b58482611681565b50505050565b6000600260009054906101000a900473ffffffffffffffffffffffffffffffffffffffff16905081600260006101000a81548173ffffffffffffffffffffffffffffffffffffffff021916908373ffffffffffffffffffffffffffffffffffffffff1602179055508173ffffffffffffffffffffffffffffffffffffffff168173ffffffffffffffffffffffffffffffffffffffff167f8be0079c531659141344cd1fd0a4f28419497f9722a3daafe3b4186f6b6457e060405160405180910390a35050565b611189610481565b156111c9576040517f08c379a00000000000000000000000000000000000000000000000000000000081526004016111c0906122b4565b60405180910390fd5b6001600260146101000a81548160ff0219169083151502179055507f62e78cea01bee320cd4e420270b5ea74000d11b0c9f74754ebdbfc544b05a25861120d610bf7565b60405161121a9190612154565b60405180910390a1565b8061122e81611479565b608001511561123c57600080fd5b6112458261164c565b15611285576040517f08c379a000000000000000000000000000000000000000000000000000000000815260040161127c90612334565b60405180910390fd5b61128e826117b5565b156112ce576040517f08c379a00000000000000000000000000000000000000000000000000000000081526004016112c590612294565b60405180910390fd5b60006112d983611479565b905060018160800190151590811515815250508060a001516113235760018160a00190151590811515815250506113108382611681565b61131e3382604001516117f5565b61132e565b61132d8382611681565b5b505050565b600061133e82611479565b905061134982611445565b611388576040517f08c379a000000000000000000000000000000000000000000000000000000000815260040161137f906122f4565b60405180910390fd5b611391826117b5565b156113d1576040517f08c379a00000000000000000000000000000000000000000000000000000000081526004016113c890612214565b60405180910390fd5b6113da826118e6565b611419576040517f08c379a000000000000000000000000000000000000000000000000000000000815260040161141090612234565b60405180910390fd5b60018160a00190151590811515815250506114378160400151611921565b6114418282611681565b5050565b60008061145183611479565b905060008160400151141561146a576000915050611474565b8060a00151159150505b919050565b611481611b14565b81600360003373ffffffffffffffffffffffffffffffffffffffff1673ffffffffffffffffffffffffffffffffffffffff16815260200190815260200160002080549050116114cf57600080fd5b600360003373ffffffffffffffffffffffffffffffffffffffff1673ffffffffffffffffffffffffffffffffffffffff1681526020019081526020016000208281548110611546577f4e487b7100000000000000000000000000000000000000000000000000000000600052603260045260246000fd5b90600052602060002090600502016040518060c001604052908160008201805461156f9061254a565b80601f016020809104026020016040519081016040528092919081815260200182805461159b9061254a565b80156115e85780601f106115bd576101008083540402835291602001916115e8565b820191906000526020600020905b8154815290600101906020018083116115cb57829003601f168201915b505050505081526020016001820154815260200160028201548152602001600382015481526020016004820160009054906101000a900460ff161515151581526020016004820160019054906101000a900460ff1615151515815250509050919050565b60008061165883611479565b905060008160600151141561167157600091505061167c565b428160600151109150505b919050565b80600360003373ffffffffffffffffffffffffffffffffffffffff1673ffffffffffffffffffffffffffffffffffffffff16815260200190815260200160002083815481106116f9577f4e487b7100000000000000000000000000000000000000000000000000000000600052603260045260246000fd5b906000526020600020906005020160008201518160000190805190602001906117239291906119c1565b5060208201518160010155604082015181600201556060820151816003015560808201518160040160006101000a81548160ff02191690831515021790555060a08201518160040160016101000a81548160ff0219169083151502179055509050507ff1d942a3aa0252ca9653f82dac1b78fedc485a12a7f7ce983e614d3914e7114560405160405180910390a15050565b60006117c082611445565b6117cd57600090506117f0565b6117d68261164c565b6117e357600090506117f0565b6117ec826118e6565b1590505b919050565b6002600054141561183b576040517f08c379a000000000000000000000000000000000000000000000000000000000815260040161183290612314565b60405180910390fd5b60026000819055506000600160008473ffffffffffffffffffffffffffffffffffffffff1673ffffffffffffffffffffffffffffffffffffffff16815260200190815260200160002054905081816118939190612436565b905080600160008573ffffffffffffffffffffffffffffffffffffffff1673ffffffffffffffffffffffffffffffffffffffff168152602001908152602001600020819055505060016000819055505050565b6000806118f283611479565b9050603c81606001516119059190612436565b42111561191657600191505061191c565b60009150505b919050565b60026000541415611967576040517f08c379a000000000000000000000000000000000000000000000000000000000815260040161195e90612314565b60405180910390fd5b60026000819055503373ffffffffffffffffffffffffffffffffffffffff166108fc829081150290604051600060405180830381858888f193505050501580156119b5573d6000803e3d6000fd5b50600160008190555050565b8280546119cd9061254a565b90600052602060002090601f0160209004810192826119ef5760008555611a36565b82601f10611a0857805160ff1916838001178555611a36565b82800160010185558215611a36579182015b82811115611a35578251825591602001919060010190611a1a565b5b509050611a439190611b4e565b5090565b828054611a539061254a565b90600052602060002090601f016020900481019282611a755760008555611ac3565b82601f10611a865780548555611ac3565b82800160010185558215611ac357600052602060002091601f016020900482015b82811115611ac2578254825591600101919060010190611aa7565b5b509050611ad09190611b4e565b5090565b508054611ae09061254a565b6000825580601f10611af25750611b11565b601f016020900490600052602060002090810190611b109190611b4e565b5b50565b6040518060c00160405280606081526020016000815260200160008152602001600081526020016000151581526020016000151581525090565b5b80821115611b67576000816000905550600101611b4f565b5090565b6000611b7e611b79846123a0565b61236f565b905082815260208101848484011115611b9657600080fd5b611ba1848285612508565b509392505050565b600081359050611bb88161261a565b92915050565b600082601f830112611bcf57600080fd5b8135611bdf848260208601611b6b565b91505092915050565b600081359050611bf781612631565b92915050565b600060208284031215611c0f57600080fd5b6000611c1d84828501611ba9565b91505092915050565b60008060408385031215611c3957600080fd5b6000611c4785828601611ba9565b9250506020611c5885828601611be8565b9150509250929050565b60008060408385031215611c7557600080fd5b600083013567ffffffffffffffff811115611c8f57600080fd5b611c9b85828601611bbe565b9250506020611cac85828601611be8565b9150509250929050565b600060208284031215611cc857600080fd5b6000611cd684828501611be8565b91505092915050565b6000611ceb83836120ad565b905092915050565b611cfc816124c0565b82525050565b6000611d0d826123e0565b611d178185612403565b935083602082028501611d29856123d0565b8060005b85811015611d655784840389528151611d468582611cdf565b9450611d51836123f6565b925060208a01995050600181019050611d2d565b50829750879550505050505092915050565b611d80816124d2565b82525050565b611d8f816124d2565b82525050565b6000611da0826123eb565b611daa8185612414565b9350611dba818560208601612517565b611dc381612609565b840191505092915050565b6000611dd9826123eb565b611de38185612425565b9350611df3818560208601612517565b611dfc81612609565b840191505092915050565b6000611e14601983612425565b91507f5461736b20697320756e6465722070756e6973686d656e7421000000000000006000830152602082019050919050565b6000611e54601683612425565b91507f50756e6973686d656e74206973206e6f74206f766572000000000000000000006000830152602082019050919050565b6000611e94601483612425565b91507f5061757361626c653a206e6f74207061757365640000000000000000000000006000830152602082019050919050565b6000611ed4602683612425565b91507f4f776e61626c653a206e6577206f776e657220697320746865207a65726f206160008301527f64647265737300000000000000000000000000000000000000000000000000006020830152604082019050919050565b6000611f3a601883612425565b91507f7461736b20697320756e6465722070756e6973686d656e7400000000000000006000830152602082019050919050565b6000611f7a601083612425565b91507f5061757361626c653a20706175736564000000000000000000000000000000006000830152602082019050919050565b6000611fba602083612425565b91507f4f776e61626c653a2063616c6c6572206973206e6f7420746865206f776e65726000830152602082019050919050565b6000611ffa601383612425565b91507f446f6e277420686176652061207072697a6521000000000000000000000000006000830152602082019050919050565b600061203a601f83612425565b91507f5265656e7472616e637947756172643a207265656e7472616e742063616c6c006000830152602082019050919050565b600061207a601383612425565b91507f64756520646174652069732065787069726564000000000000000000000000006000830152602082019050919050565b600060c08301600083015184820360008601526120ca8282611d95565b91505060208301516120df6020860182612136565b5060408301516120f26040860182612136565b5060608301516121056060860182612136565b5060808301516121186080860182611d77565b5060a083015161212b60a0860182611d77565b508091505092915050565b61213f816124fe565b82525050565b61214e816124fe565b82525050565b60006020820190506121696000830184611cf3565b92915050565b600060208201905081810360008301526121898184611d02565b905092915050565b60006020820190506121a66000830184611d86565b92915050565b600060c08201905081810360008301526121c68189611dce565b90506121d56020830188612145565b6121e26040830187612145565b6121ef6060830186612145565b6121fc6080830185611d86565b61220960a0830184611d86565b979650505050505050565b6000602082019050818103600083015261222d81611e07565b9050919050565b6000602082019050818103600083015261224d81611e47565b9050919050565b6000602082019050818103600083015261226d81611e87565b9050919050565b6000602082019050818103600083015261228d81611ec7565b9050919050565b600060208201905081810360008301526122ad81611f2d565b9050919050565b600060208201905081810360008301526122cd81611f6d565b9050919050565b600060208201905081810360008301526122ed81611fad565b9050919050565b6000602082019050818103600083015261230d81611fed565b9050919050565b6000602082019050818103600083015261232d8161202d565b9050919050565b6000602082019050818103600083015261234d8161206d565b9050919050565b60006020820190506123696000830184612145565b92915050565b6000604051905081810181811067ffffffffffffffff82111715612396576123956125da565b5b8060405250919050565b600067ffffffffffffffff8211156123bb576123ba6125da565b5b601f19601f8301169050602081019050919050565b6000819050602082019050919050565b600081519050919050565b600081519050919050565b6000602082019050919050565b600082825260208201905092915050565b600082825260208201905092915050565b600082825260208201905092915050565b6000612441826124fe565b915061244c836124fe565b9250827fffffffffffffffffffffffffffffffffffffffffffffffffffffffffffffffff038211156124815761248061257c565b5b828201905092915050565b6000612497826124fe565b91506124a2836124fe565b9250828210156124b5576124b461257c565b5b828203905092915050565b60006124cb826124de565b9050919050565b60008115159050919050565b600073ffffffffffffffffffffffffffffffffffffffff82169050919050565b6000819050919050565b82818337600083830152505050565b60005b8381101561253557808201518184015260208101905061251a565b83811115612544576000848401525b50505050565b6000600282049050600182168061256257607f821691505b60208210811415612576576125756125ab565b5b50919050565b7f4e487b7100000000000000000000000000000000000000000000000000000000600052601160045260246000fd5b7f4e487b7100000000000000000000000000000000000000000000000000000000600052602260045260246000fd5b7f4e487b7100000000000000000000000000000000000000000000000000000000600052604160045260246000fd5b6000601f19601f8301169050919050565b612623816124c0565b811461262e57600080fd5b50565b61263a816124fe565b811461264557600080fd5b5056fea2646970667358221220368b5f1df5be585d77af85ed5bbac45ccaba94bf5dea106ba74f7394ad6d58ab64736f6c63430008000033",
  "immutableReferences": {},
  "source": "// SPDX-License-Identifier: MIT\npragma solidity >=0.8.0 <0.9.0;\n//pragma experimental ABIEncoderV2; // Two level dynamic arrays support\n\nimport \"@openzeppelin/contracts/access/Ownable.sol\";\nimport \"./MainTasks.sol\";\n\ncontract TodoList is Ownable, MainTasks{\n\n  /// @notice Get all tasks of msg sender\n  /// @return Tasks array\n  function getTasks() public view returns (Task[] memory) {\n    return _getTasks();\n  }\n  \n  /// @notice Add a new task for msg sender\n  /// @param _description Task decription\n  /// @param _dueDate Task due date\n  function add(string memory _description, uint _dueDate) public {\n    _add(_description, _dueDate);\n  }\n\n  // Update a task TODO\n\n  // Set a task as completed\n  function setComplete(uint _id) public {\n    _setComplete(_id);\n  }\n\n  // Remove a task\n  function remove(uint _id) public {\n    _remove(_id);\n  }\n\n  // Add prize to a task\n  function setPrize(uint _id) public payable {\n    _setPrize(_id);\n  }\n\n  // Clear a task\n  function clear(uint _id) public {\n    _clear(_id);\n  }\n  \n\n  // Pause contract deposits\n  function pause() public onlyOwner() {\n    _pause();\n  }\n\n  // Unpause contract deposits\n  function unpause() public onlyOwner() {\n    _unpause();\n  }\n\n}\n",
  "sourcePath": "/Users/afolabi/blockchaindev/blockchain-developer-bootcamp-final-project/contracts/TodoList.sol",
  "compiler": {
    "name": "solc",
    "version": "0.8.0+commit.c7dfd78e.Emscripten.clang"
  },
  "schemaVersion": "3.4.4",
  "updatedAt": "2022-03-14T12:29:53.331Z",
  "networkType": "ethereum",
  "devdoc": {
    "kind": "dev",
    "methods": {
      "add(string,uint256)": {
        "params": {
          "_description": "Task decription",
          "_dueDate": "Task due date"
        }
      },
      "getTasks()": {
        "returns": {
          "_0": "Tasks array"
        }
      },
      "owner()": {
        "details": "Returns the address of the current owner."
      },
      "paused()": {
        "details": "Returns true if the contract is paused, and false otherwise."
      },
      "renounceOwnership()": {
        "details": "Leaves the contract without owner. It will not be possible to call `onlyOwner` functions anymore. Can only be called by the current owner. NOTE: Renouncing ownership will leave the contract without an owner, thereby removing any functionality that is only available to the owner."
      },
      "transferOwnership(address)": {
        "details": "Transfers ownership of the contract to a new account (`newOwner`). Can only be called by the current owner."
      }
    },
    "version": 1
  },
  "userdoc": {
    "kind": "user",
    "methods": {
      "add(string,uint256)": {
        "notice": "Add a new task for msg sender"
      },
      "getTasks()": {
        "notice": "Get all tasks of msg sender"
      }
    },
    "version": 1
  }
}