{
  "contractName": "MuiltSigWithThreshold",
  "abi": [
    {
      "inputs": [],
      "stateMutability": "nonpayable",
      "type": "constructor"
    },
    {
      "anonymous": false,
      "inputs": [
        {
          "indexed": false,
          "internalType": "address",
          "name": "_sender",
          "type": "address"
        },
        {
          "indexed": false,
          "internalType": "string",
          "name": "_txName",
          "type": "string"
        },
        {
          "indexed": false,
          "internalType": "uint256",
          "name": "_requiredThreshold",
          "type": "uint256"
        }
      ],
      "name": "NewTypeOfTransactionAdded",
      "type": "event"
    },
    {
      "anonymous": false,
      "inputs": [
        {
          "indexed": true,
          "internalType": "address",
          "name": "previousOwner",
          "type": "address"
        },
        {
          "indexed": true,
          "internalType": "address",
          "name": "newOwner",
          "type": "address"
        }
      ],
      "name": "OwnershipTransferred",
      "type": "event"
    },
    {
      "anonymous": false,
      "inputs": [
        {
          "indexed": false,
          "internalType": "address",
          "name": "_signerAdd",
          "type": "address"
        },
        {
          "indexed": false,
          "internalType": "uint256",
          "name": "_signerWeight",
          "type": "uint256"
        }
      ],
      "name": "SignerAdded",
      "type": "event"
    },
    {
      "anonymous": false,
      "inputs": [
        {
          "indexed": false,
          "internalType": "address",
          "name": "_adder",
          "type": "address"
        },
        {
          "indexed": false,
          "internalType": "uint256",
          "name": "_amount",
          "type": "uint256"
        },
        {
          "indexed": false,
          "internalType": "address",
          "name": "_to",
          "type": "address"
        }
      ],
      "name": "TransactionAdded",
      "type": "event"
    },
    {
      "anonymous": false,
      "inputs": [
        {
          "indexed": false,
          "internalType": "address",
          "name": "_signer",
          "type": "address"
        },
        {
          "indexed": false,
          "internalType": "uint256",
          "name": "_txIndex",
          "type": "uint256"
        },
        {
          "indexed": false,
          "internalType": "uint256",
          "name": "_signerWeight",
          "type": "uint256"
        },
        {
          "indexed": false,
          "internalType": "uint256",
          "name": "_requiredThreshold",
          "type": "uint256"
        }
      ],
      "name": "TransactionSigned",
      "type": "event"
    },
    {
      "anonymous": false,
      "inputs": [
        {
          "indexed": false,
          "internalType": "address",
          "name": "_sender",
          "type": "address"
        },
        {
          "indexed": false,
          "internalType": "uint256",
          "name": "_amt",
          "type": "uint256"
        },
        {
          "indexed": false,
          "internalType": "address",
          "name": "_receiver",
          "type": "address"
        }
      ],
      "name": "TransactionSubmitted",
      "type": "event"
    },
    {
      "anonymous": false,
      "inputs": [
        {
          "indexed": false,
          "internalType": "address",
          "name": "_sender",
          "type": "address"
        },
        {
          "indexed": false,
          "internalType": "uint256",
          "name": "_weightRemove",
          "type": "uint256"
        }
      ],
      "name": "revockSignature",
      "type": "event"
    },
    {
      "inputs": [],
      "name": "owner",
      "outputs": [
        {
          "internalType": "address",
          "name": "",
          "type": "address"
        }
      ],
      "stateMutability": "view",
      "type": "function",
      "constant": true
    },
    {
      "inputs": [],
      "name": "renounceOwnership",
      "outputs": [],
      "stateMutability": "nonpayable",
      "type": "function"
    },
    {
      "inputs": [],
      "name": "signerCounter",
      "outputs": [
        {
          "internalType": "uint256",
          "name": "",
          "type": "uint256"
        }
      ],
      "stateMutability": "view",
      "type": "function",
      "constant": true
    },
    {
      "inputs": [
        {
          "internalType": "string",
          "name": "",
          "type": "string"
        }
      ],
      "name": "transactionTypeList",
      "outputs": [
        {
          "internalType": "uint256",
          "name": "",
          "type": "uint256"
        }
      ],
      "stateMutability": "view",
      "type": "function",
      "constant": true
    },
    {
      "inputs": [
        {
          "internalType": "address",
          "name": "newOwner",
          "type": "address"
        }
      ],
      "name": "transferOwnership",
      "outputs": [],
      "stateMutability": "nonpayable",
      "type": "function"
    },
    {
      "inputs": [],
      "name": "txCounter",
      "outputs": [
        {
          "internalType": "uint256",
          "name": "",
          "type": "uint256"
        }
      ],
      "stateMutability": "view",
      "type": "function",
      "constant": true
    },
    {
      "stateMutability": "payable",
      "type": "receive",
      "payable": true
    },
    {
      "inputs": [
        {
          "internalType": "address",
          "name": "_to",
          "type": "address"
        },
        {
          "internalType": "uint256",
          "name": "_amt",
          "type": "uint256"
        },
        {
          "internalType": "string",
          "name": "_transactionType",
          "type": "string"
        }
      ],
      "name": "addTransaction",
      "outputs": [],
      "stateMutability": "nonpayable",
      "type": "function"
    },
    {
      "inputs": [
        {
          "internalType": "string",
          "name": "_txName",
          "type": "string"
        }
      ],
      "name": "getTxWeight",
      "outputs": [
        {
          "internalType": "uint256",
          "name": "",
          "type": "uint256"
        }
      ],
      "stateMutability": "view",
      "type": "function",
      "constant": true
    },
    {
      "inputs": [],
      "name": "getAllTranactions",
      "outputs": [
        {
          "components": [
            {
              "internalType": "address",
              "name": "to",
              "type": "address"
            },
            {
              "internalType": "uint256",
              "name": "amount",
              "type": "uint256"
            },
            {
              "internalType": "string",
              "name": "transactionType",
              "type": "string"
            },
            {
              "internalType": "bool",
              "name": "executed",
              "type": "bool"
            },
            {
              "internalType": "uint256",
              "name": "totalNumbersOfSig",
              "type": "uint256"
            }
          ],
          "internalType": "struct MuiltSigWithThreshold.TransactionObj[]",
          "name": "",
          "type": "tuple[]"
        }
      ],
      "stateMutability": "view",
      "type": "function",
      "constant": true
    },
    {
      "inputs": [
        {
          "internalType": "uint256",
          "name": "_txID",
          "type": "uint256"
        }
      ],
      "name": "getTxByID",
      "outputs": [
        {
          "components": [
            {
              "internalType": "address",
              "name": "to",
              "type": "address"
            },
            {
              "internalType": "uint256",
              "name": "amount",
              "type": "uint256"
            },
            {
              "internalType": "string",
              "name": "transactionType",
              "type": "string"
            },
            {
              "internalType": "bool",
              "name": "executed",
              "type": "bool"
            },
            {
              "internalType": "uint256",
              "name": "totalNumbersOfSig",
              "type": "uint256"
            }
          ],
          "internalType": "struct MuiltSigWithThreshold.TransactionObj",
          "name": "",
          "type": "tuple"
        }
      ],
      "stateMutability": "view",
      "type": "function",
      "constant": true
    },
    {
      "inputs": [
        {
          "internalType": "string",
          "name": "_name",
          "type": "string"
        },
        {
          "internalType": "uint256",
          "name": "_weight",
          "type": "uint256"
        }
      ],
      "name": "addTxWithThreshold",
      "outputs": [],
      "stateMutability": "nonpayable",
      "type": "function"
    },
    {
      "inputs": [
        {
          "internalType": "uint256",
          "name": "_txIndex",
          "type": "uint256"
        }
      ],
      "name": "revockSignerSig",
      "outputs": [],
      "stateMutability": "nonpayable",
      "type": "function"
    },
    {
      "inputs": [
        {
          "internalType": "address",
          "name": "_signerAdd",
          "type": "address"
        },
        {
          "internalType": "uint256",
          "name": "_weight",
          "type": "uint256"
        }
      ],
      "name": "addSignerWithWeight",
      "outputs": [],
      "stateMutability": "nonpayable",
      "type": "function"
    },
    {
      "inputs": [
        {
          "internalType": "address",
          "name": "_address",
          "type": "address"
        }
      ],
      "name": "getSignerByAddress",
      "outputs": [
        {
          "components": [
            {
              "internalType": "address",
              "name": "id",
              "type": "address"
            },
            {
              "internalType": "uint256",
              "name": "sigWeight",
              "type": "uint256"
            }
          ],
          "internalType": "struct MuiltSigWithThreshold.SignerList",
          "name": "",
          "type": "tuple"
        }
      ],
      "stateMutability": "view",
      "type": "function",
      "constant": true
    },
    {
      "inputs": [
        {
          "internalType": "uint256",
          "name": "_txId",
          "type": "uint256"
        }
      ],
      "name": "signTransaction",
      "outputs": [],
      "stateMutability": "nonpayable",
      "type": "function"
    },
    {
      "inputs": [
        {
          "internalType": "uint256",
          "name": "_txIndex",
          "type": "uint256"
        }
      ],
      "name": "submitTransaction",
      "outputs": [],
      "stateMutability": "nonpayable",
      "type": "function"
    }
  ],
  "bytecode": "0x60806040523480156200001157600080fd5b506200003262000026620000b460201b60201c565b620000bc60201b60201c565b600060016040516200004490620001db565b90815260200160405180910390208190555060506001604051620000689062000242565b908152602001604051809103902081905550603c60016040516200008c90620002a9565b90815260200160405180910390208190555060006007819055506000600681905550620002c0565b600033905090565b60008060009054906101000a900473ffffffffffffffffffffffffffffffffffffffff169050816000806101000a81548173ffffffffffffffffffffffffffffffffffffffff021916908373ffffffffffffffffffffffffffffffffffffffff1602179055508173ffffffffffffffffffffffffffffffffffffffff168173ffffffffffffffffffffffffffffffffffffffff167f8be0079c531659141344cd1fd0a4f28419497f9722a3daafe3b4186f6b6457e060405160405180910390a35050565b600081905092915050565b7f6465706f73697400000000000000000000000000000000000000000000000000600082015250565b6000620001c360078362000180565b9150620001d0826200018b565b600782019050919050565b6000620001e882620001b4565b9150819050919050565b7f7769746864726177616c00000000000000000000000000000000000000000000600082015250565b60006200022a600a8362000180565b91506200023782620001f2565b600a82019050919050565b60006200024f826200021b565b9150819050919050565b7f7472616e73666572000000000000000000000000000000000000000000000000600082015250565b60006200029160088362000180565b91506200029e8262000259565b600882019050919050565b6000620002b68262000282565b9150819050919050565b61273780620002d06000396000f3fe6080604052600436106100f75760003560e01c806374f079b81161008a578063c34a0ead11610059578063c34a0ead14610321578063c50bafcc1461034a578063f2fde38b14610387578063ffa256f1146103b0576100fe565b806374f079b8146102635780638da5cb5b1461028e578063a613907b146102b9578063beed1420146102e4576100fe565b806338021b25116100c657806338021b25146101cf5780635d9ec210146101f857806365fea91f14610221578063715018a61461024c576100fe565b8063090c85a4146101035780630a09190e1461012c5780631277536a1461016957806323bb5f1314610192576100fe565b366100fe57005b600080fd5b34801561010f57600080fd5b5061012a600480360381019061012591906119df565b6103d9565b005b34801561013857600080fd5b50610153600480360381019061014e9190611a4e565b6105ae565b6040516101609190611aa6565b60405180910390f35b34801561017557600080fd5b50610190600480360381019061018b9190611ac1565b6105d6565b005b34801561019e57600080fd5b506101b960048036038101906101b49190611a4e565b6107bd565b6040516101c69190611aa6565b60405180910390f35b3480156101db57600080fd5b506101f660048036038101906101f19190611b01565b6107eb565b005b34801561020457600080fd5b5061021f600480360381019061021a9190611b5d565b61084d565b005b34801561022d57600080fd5b50610236610b8e565b6040516102439190611d83565b60405180910390f35b34801561025857600080fd5b50610261610d6b565b005b34801561026f57600080fd5b50610278610df3565b6040516102859190611aa6565b60405180910390f35b34801561029a57600080fd5b506102a3610df9565b6040516102b09190611db4565b60405180910390f35b3480156102c557600080fd5b506102ce610e22565b6040516102db9190611aa6565b60405180910390f35b3480156102f057600080fd5b5061030b60048036038101906103069190611b5d565b610e28565b6040516103189190611e45565b60405180910390f35b34801561032d57600080fd5b5061034860048036038101906103439190611b5d565b610f6c565b005b34801561035657600080fd5b50610371600480360381019061036c9190611e67565b61120d565b60405161037e9190611ec3565b60405180910390f35b34801561039357600080fd5b506103ae60048036038101906103a99190611e67565b6112c6565b005b3480156103bc57600080fd5b506103d760048036038101906103d29190611b5d565b6113bd565b005b600560003373ffffffffffffffffffffffffffffffffffffffff1673ffffffffffffffffffffffffffffffffffffffff16815260200190815260200160002060009054906101000a900460ff16610465576040517f08c379a000000000000000000000000000000000000000000000000000000000815260040161045c90611f3b565b60405180910390fd5b6040518060a001604052808473ffffffffffffffffffffffffffffffffffffffff168152602001838152602001828152602001600015158152602001600081525060026000600754815260200190815260200160002060008201518160000160006101000a81548173ffffffffffffffffffffffffffffffffffffffff021916908373ffffffffffffffffffffffffffffffffffffffff1602179055506020820151816001015560408201518160020190805190602001906105289291906116d7565b5060608201518160030160006101000a81548160ff021916908315150217905550608082015181600401559050506007600081548092919061056990611f8a565b91905055507fdbbd4f0c67e54f103bfd3b507c4183d751530b2336b6db66233eb37a6671b41a3383856040516105a193929190611fd2565b60405180910390a1505050565b60006001826040516105c09190612045565b9081526020016040518091039020549050919050565b6105de61160b565b73ffffffffffffffffffffffffffffffffffffffff166105fc610df9565b73ffffffffffffffffffffffffffffffffffffffff1614610652576040517f08c379a0000000000000000000000000000000000000000000000000000000008152600401610649906120a8565b60405180910390fd5b60405180604001604052808373ffffffffffffffffffffffffffffffffffffffff16815260200182815250600360008473ffffffffffffffffffffffffffffffffffffffff1673ffffffffffffffffffffffffffffffffffffffff16815260200190815260200160002060008201518160000160006101000a81548173ffffffffffffffffffffffffffffffffffffffff021916908373ffffffffffffffffffffffffffffffffffffffff160217905550602082015181600101559050506001600560008473ffffffffffffffffffffffffffffffffffffffff1673ffffffffffffffffffffffffffffffffffffffff16815260200190815260200160002060006101000a81548160ff0219169083151502179055506006600081548092919061077b90611f8a565b91905055507f50999ebf9b59bf3157a58816611976f2d723378ad51457d7b0413209e0cdee5982826040516107b19291906120c8565b60405180910390a15050565b6001818051602081018201805184825260208301602085012081835280955050505050506000915090505481565b806001836040516107fc9190612045565b9081526020016040518091039020819055507fda9bad9d7968e5b76a103033ee97f0352fb67a06e70bc6fcb986893ef24b5ed43383836040516108419392919061212a565b60405180910390a15050565b600560003373ffffffffffffffffffffffffffffffffffffffff1673ffffffffffffffffffffffffffffffffffffffff16815260200190815260200160002060009054906101000a900460ff166108d9576040517f08c379a00000000000000000000000000000000000000000000000000000000081526004016108d090611f3b565b60405180910390fd5b8080600754101580156108ee57506000600754115b61092d576040517f08c379a0000000000000000000000000000000000000000000000000000000008152600401610924906121b4565b60405180910390fd5b816004600082815260200190815260200160002060003373ffffffffffffffffffffffffffffffffffffffff1673ffffffffffffffffffffffffffffffffffffffff16815260200190815260200160002060009054906101000a900460ff16156109cc576040517f08c379a00000000000000000000000000000000000000000000000000000000081526004016109c390612220565b60405180910390fd5b600060026000858152602001908152602001600020905060003390506000600360008373ffffffffffffffffffffffffffffffffffffffff1673ffffffffffffffffffffffffffffffffffffffff1681526020019081526020016000206040518060400160405290816000820160009054906101000a900473ffffffffffffffffffffffffffffffffffffffff1673ffffffffffffffffffffffffffffffffffffffff1673ffffffffffffffffffffffffffffffffffffffff16815260200160018201548152505090508060200151836004016000828254610aae9190612240565b9250508190555060016004600088815260200190815260200160002060003373ffffffffffffffffffffffffffffffffffffffff1673ffffffffffffffffffffffffffffffffffffffff16815260200190815260200160002060006101000a81548160ff0219169083151502179055506000600184600201604051610b33919061238a565b90815260200160405180910390205490507f1d7dde13fe5441b64328c9356ab10c4317d9a644bb7b79348910872c359c109d3388846020015184604051610b7d94939291906123a1565b60405180910390a150505050505050565b6060600060075467ffffffffffffffff811115610bae57610bad6118b4565b5b604051908082528060200260200182016040528015610be757816020015b610bd461175d565b815260200190600190039081610bcc5790505b50905060005b600754811015610d63576000600260008381526020019081526020016000209050806040518060a00160405290816000820160009054906101000a900473ffffffffffffffffffffffffffffffffffffffff1673ffffffffffffffffffffffffffffffffffffffff1673ffffffffffffffffffffffffffffffffffffffff16815260200160018201548152602001600282018054610c8a906122c5565b80601f0160208091040260200160405190810160405280929190818152602001828054610cb6906122c5565b8015610d035780601f10610cd857610100808354040283529160200191610d03565b820191906000526020600020905b815481529060010190602001808311610ce657829003601f168201915b505050505081526020016003820160009054906101000a900460ff16151515158152602001600482015481525050838381518110610d4457610d436123e6565b5b6020026020010181905250508080610d5b90611f8a565b915050610bed565b508091505090565b610d7361160b565b73ffffffffffffffffffffffffffffffffffffffff16610d91610df9565b73ffffffffffffffffffffffffffffffffffffffff1614610de7576040517f08c379a0000000000000000000000000000000000000000000000000000000008152600401610dde906120a8565b60405180910390fd5b610df16000611613565b565b60075481565b60008060009054906101000a900473ffffffffffffffffffffffffffffffffffffffff16905090565b60065481565b610e3061175d565b600260008381526020019081526020016000206040518060a00160405290816000820160009054906101000a900473ffffffffffffffffffffffffffffffffffffffff1673ffffffffffffffffffffffffffffffffffffffff1673ffffffffffffffffffffffffffffffffffffffff16815260200160018201548152602001600282018054610ebe906122c5565b80601f0160208091040260200160405190810160405280929190818152602001828054610eea906122c5565b8015610f375780601f10610f0c57610100808354040283529160200191610f37565b820191906000526020600020905b815481529060010190602001808311610f1a57829003601f168201915b505050505081526020016003820160009054906101000a900460ff161515151581526020016004820154815250509050919050565b600560003373ffffffffffffffffffffffffffffffffffffffff1673ffffffffffffffffffffffffffffffffffffffff16815260200190815260200160002060009054906101000a900460ff16610ff8576040517f08c379a0000000000000000000000000000000000000000000000000000000008152600401610fef90611f3b565b60405180910390fd5b80806007541015801561100d57506000600754115b61104c576040517f08c379a0000000000000000000000000000000000000000000000000000000008152600401611043906121b4565b60405180910390fd5b816002600082815260200190815260200160002060030160009054906101000a900460ff16156110b1576040517f08c379a00000000000000000000000000000000000000000000000000000000081526004016110a890612461565b60405180910390fd5b600060026000858152602001908152602001600020905060006001826002016040516110dd919061238a565b90815260200160405180910390205490508082600401541015611135576040517f08c379a000000000000000000000000000000000000000000000000000000000815260040161112c906124f3565b60405180910390fd5b60008260000160009054906101000a900473ffffffffffffffffffffffffffffffffffffffff1690508073ffffffffffffffffffffffffffffffffffffffff166108fc84600101549081150290604051600060405180830381858888f193505050501580156111a8573d6000803e3d6000fd5b5060018360030160006101000a81548160ff0219169083151502179055507f5d322aa413eb32efd4a9c0be149a65487b54804ead807d802631b2cb2c5321c6308460010154836040516111fd93929190612572565b60405180910390a1505050505050565b6112156117a4565b600360008373ffffffffffffffffffffffffffffffffffffffff1673ffffffffffffffffffffffffffffffffffffffff1681526020019081526020016000206040518060400160405290816000820160009054906101000a900473ffffffffffffffffffffffffffffffffffffffff1673ffffffffffffffffffffffffffffffffffffffff1673ffffffffffffffffffffffffffffffffffffffff1681526020016001820154815250509050919050565b6112ce61160b565b73ffffffffffffffffffffffffffffffffffffffff166112ec610df9565b73ffffffffffffffffffffffffffffffffffffffff1614611342576040517f08c379a0000000000000000000000000000000000000000000000000000000008152600401611339906120a8565b60405180910390fd5b600073ffffffffffffffffffffffffffffffffffffffff168173ffffffffffffffffffffffffffffffffffffffff16036113b1576040517f08c379a00000000000000000000000000000000000000000000000000000000081526004016113a89061261b565b60405180910390fd5b6113ba81611613565b50565b600560003373ffffffffffffffffffffffffffffffffffffffff1673ffffffffffffffffffffffffffffffffffffffff16815260200190815260200160002060009054906101000a900460ff16611449576040517f08c379a000000000000000000000000000000000000000000000000000000000815260040161144090611f3b565b60405180910390fd5b806004600082815260200190815260200160002060003373ffffffffffffffffffffffffffffffffffffffff1673ffffffffffffffffffffffffffffffffffffffff16815260200190815260200160002060009054906101000a900460ff166114e7576040517f08c379a00000000000000000000000000000000000000000000000000000000081526004016114de906126ad565b60405180910390fd5b60006002600084815260200190815260200160002090506000600360003373ffffffffffffffffffffffffffffffffffffffff1673ffffffffffffffffffffffffffffffffffffffff168152602001908152602001600020600101549050600081836004015461155791906126cd565b905080836004018190555060006004600087815260200190815260200160002060003373ffffffffffffffffffffffffffffffffffffffff1673ffffffffffffffffffffffffffffffffffffffff16815260200190815260200160002060006101000a81548160ff0219169083151502179055507f6e6180ac33a40129fce08928a0b19e1a8811dccf83afd9ab4496df48c3be1b0533836040516115fc9291906120c8565b60405180910390a15050505050565b600033905090565b60008060009054906101000a900473ffffffffffffffffffffffffffffffffffffffff169050816000806101000a81548173ffffffffffffffffffffffffffffffffffffffff021916908373ffffffffffffffffffffffffffffffffffffffff1602179055508173ffffffffffffffffffffffffffffffffffffffff168173ffffffffffffffffffffffffffffffffffffffff167f8be0079c531659141344cd1fd0a4f28419497f9722a3daafe3b4186f6b6457e060405160405180910390a35050565b8280546116e3906122c5565b90600052602060002090601f016020900481019282611705576000855561174c565b82601f1061171e57805160ff191683800117855561174c565b8280016001018555821561174c579182015b8281111561174b578251825591602001919060010190611730565b5b50905061175991906117d4565b5090565b6040518060a00160405280600073ffffffffffffffffffffffffffffffffffffffff1681526020016000815260200160608152602001600015158152602001600081525090565b6040518060400160405280600073ffffffffffffffffffffffffffffffffffffffff168152602001600081525090565b5b808211156117ed5760008160009055506001016117d5565b5090565b6000604051905090565b600080fd5b600080fd5b600073ffffffffffffffffffffffffffffffffffffffff82169050919050565b600061183082611805565b9050919050565b61184081611825565b811461184b57600080fd5b50565b60008135905061185d81611837565b92915050565b6000819050919050565b61187681611863565b811461188157600080fd5b50565b6000813590506118938161186d565b92915050565b600080fd5b600080fd5b6000601f19601f8301169050919050565b7f4e487b7100000000000000000000000000000000000000000000000000000000600052604160045260246000fd5b6118ec826118a3565b810181811067ffffffffffffffff8211171561190b5761190a6118b4565b5b80604052505050565b600061191e6117f1565b905061192a82826118e3565b919050565b600067ffffffffffffffff82111561194a576119496118b4565b5b611953826118a3565b9050602081019050919050565b82818337600083830152505050565b600061198261197d8461192f565b611914565b90508281526020810184848401111561199e5761199d61189e565b5b6119a9848285611960565b509392505050565b600082601f8301126119c6576119c5611899565b5b81356119d684826020860161196f565b91505092915050565b6000806000606084860312156119f8576119f76117fb565b5b6000611a068682870161184e565b9350506020611a1786828701611884565b925050604084013567ffffffffffffffff811115611a3857611a37611800565b5b611a44868287016119b1565b9150509250925092565b600060208284031215611a6457611a636117fb565b5b600082013567ffffffffffffffff811115611a8257611a81611800565b5b611a8e848285016119b1565b91505092915050565b611aa081611863565b82525050565b6000602082019050611abb6000830184611a97565b92915050565b60008060408385031215611ad857611ad76117fb565b5b6000611ae68582860161184e565b9250506020611af785828601611884565b9150509250929050565b60008060408385031215611b1857611b176117fb565b5b600083013567ffffffffffffffff811115611b3657611b35611800565b5b611b42858286016119b1565b9250506020611b5385828601611884565b9150509250929050565b600060208284031215611b7357611b726117fb565b5b6000611b8184828501611884565b91505092915050565b600081519050919050565b600082825260208201905092915050565b6000819050602082019050919050565b611bbf81611825565b82525050565b611bce81611863565b82525050565b600081519050919050565b600082825260208201905092915050565b60005b83811015611c0e578082015181840152602081019050611bf3565b83811115611c1d576000848401525b50505050565b6000611c2e82611bd4565b611c388185611bdf565b9350611c48818560208601611bf0565b611c51816118a3565b840191505092915050565b60008115159050919050565b611c7181611c5c565b82525050565b600060a083016000830151611c8f6000860182611bb6565b506020830151611ca26020860182611bc5565b5060408301518482036040860152611cba8282611c23565b9150506060830151611ccf6060860182611c68565b506080830151611ce26080860182611bc5565b508091505092915050565b6000611cf98383611c77565b905092915050565b6000602082019050919050565b6000611d1982611b8a565b611d238185611b95565b935083602082028501611d3585611ba6565b8060005b85811015611d715784840389528151611d528582611ced565b9450611d5d83611d01565b925060208a01995050600181019050611d39565b50829750879550505050505092915050565b60006020820190508181036000830152611d9d8184611d0e565b905092915050565b611dae81611825565b82525050565b6000602082019050611dc96000830184611da5565b92915050565b600060a083016000830151611de76000860182611bb6565b506020830151611dfa6020860182611bc5565b5060408301518482036040860152611e128282611c23565b9150506060830151611e276060860182611c68565b506080830151611e3a6080860182611bc5565b508091505092915050565b60006020820190508181036000830152611e5f8184611dcf565b905092915050565b600060208284031215611e7d57611e7c6117fb565b5b6000611e8b8482850161184e565b91505092915050565b604082016000820151611eaa6000850182611bb6565b506020820151611ebd6020850182611bc5565b50505050565b6000604082019050611ed86000830184611e94565b92915050565b600082825260208201905092915050565b7f4e6f742061205369676e65720000000000000000000000000000000000000000600082015250565b6000611f25600c83611ede565b9150611f3082611eef565b602082019050919050565b60006020820190508181036000830152611f5481611f18565b9050919050565b7f4e487b7100000000000000000000000000000000000000000000000000000000600052601160045260246000fd5b6000611f9582611863565b91507fffffffffffffffffffffffffffffffffffffffffffffffffffffffffffffffff8203611fc757611fc6611f5b565b5b600182019050919050565b6000606082019050611fe76000830186611da5565b611ff46020830185611a97565b6120016040830184611da5565b949350505050565b600081905092915050565b600061201f82611bd4565b6120298185612009565b9350612039818560208601611bf0565b80840191505092915050565b60006120518284612014565b915081905092915050565b7f4f776e61626c653a2063616c6c6572206973206e6f7420746865206f776e6572600082015250565b6000612092602083611ede565b915061209d8261205c565b602082019050919050565b600060208201905081810360008301526120c181612085565b9050919050565b60006040820190506120dd6000830185611da5565b6120ea6020830184611a97565b9392505050565b60006120fc82611bd4565b6121068185611ede565b9350612116818560208601611bf0565b61211f816118a3565b840191505092915050565b600060608201905061213f6000830186611da5565b818103602083015261215181856120f1565b90506121606040830184611a97565b949350505050565b7f4e6f2056616c6964205472616e73616374696f6e000000000000000000000000600082015250565b600061219e601483611ede565b91506121a982612168565b602082019050919050565b600060208201905081810360008301526121cd81612191565b9050919050565b7f4164647265737320616c7265616479205369676e656420547800000000000000600082015250565b600061220a601983611ede565b9150612215826121d4565b602082019050919050565b60006020820190508181036000830152612239816121fd565b9050919050565b600061224b82611863565b915061225683611863565b9250827fffffffffffffffffffffffffffffffffffffffffffffffffffffffffffffffff0382111561228b5761228a611f5b565b5b828201905092915050565b7f4e487b7100000000000000000000000000000000000000000000000000000000600052602260045260246000fd5b600060028204905060018216806122dd57607f821691505b6020821081036122f0576122ef612296565b5b50919050565b60008190508160005260206000209050919050565b60008154612318816122c5565b6123228186612009565b9450600182166000811461233d576001811461234e57612381565b60ff19831686528186019350612381565b612357856122f6565b60005b838110156123795781548189015260018201915060208101905061235a565b838801955050505b50505092915050565b6000612396828461230b565b915081905092915050565b60006080820190506123b66000830187611da5565b6123c36020830186611a97565b6123d06040830185611a97565b6123dd6060830184611a97565b95945050505050565b7f4e487b7100000000000000000000000000000000000000000000000000000000600052603260045260246000fd5b7f7472616e73616374696f6e20616c7265616479207375626d6974746564000000600082015250565b600061244b601d83611ede565b915061245682612415565b602082019050919050565b6000602082019050818103600083015261247a8161243e565b9050919050565b7f6e656564206d6f7265207369676e657220746f207369676e207472616e73616360008201527f74696f6e206265666f726520657865637574696f6e0000000000000000000000602082015250565b60006124dd603583611ede565b91506124e882612481565b604082019050919050565b6000602082019050818103600083015261250c816124d0565b9050919050565b6000819050919050565b600061253861253361252e84611805565b612513565b611805565b9050919050565b600061254a8261251d565b9050919050565b600061255c8261253f565b9050919050565b61256c81612551565b82525050565b60006060820190506125876000830186611da5565b6125946020830185611a97565b6125a16040830184612563565b949350505050565b7f4f776e61626c653a206e6577206f776e657220697320746865207a65726f206160008201527f6464726573730000000000000000000000000000000000000000000000000000602082015250565b6000612605602683611ede565b9150612610826125a9565b604082019050919050565b60006020820190508181036000830152612634816125f8565b9050919050565b7f596f752068617665206e6f74207369676e65642074686973207472616e73616360008201527f74696f6e00000000000000000000000000000000000000000000000000000000602082015250565b6000612697602483611ede565b91506126a28261263b565b604082019050919050565b600060208201905081810360008301526126c68161268a565b9050919050565b60006126d882611863565b91506126e383611863565b9250828210156126f6576126f5611f5b565b5b82820390509291505056fea264697066735822122033221d9effc54bf8360cf38bf44ed36058521cf0021909e77b2ce1518f62507464736f6c634300080d0033",
  "immutableReferences": {},
  "source": "// SPDX-License-Identifier: MIT\npragma solidity >=0.4.22 <0.9.0;\n\n//can Add Transaction and threshold for TX\n// can add signer and weight\n// can add new transaction Type\n// get a transaction count\n// get all transactions\n// get signer count\n// get signer using their address\n// get tx using their index\n// transaction Threshold\n//Submit tx if threshold is meant\n\n//// revock signed tx\n//get all transaction\n\nimport \"@openzeppelin/contracts/access/Ownable.sol\";\n\ncontract MuiltSigWithThreshold is Ownable  {\n\n    //Mapping for transactions List, shows all type of transactions\n    mapping(string => uint) public transactionTypeList;\n\n    //Mapping for All TRansactions\n    mapping(uint => TransactionObj) listOfAllTransactions;\n\n    //\n\n    //Modifier to check if the sender has the right weight to call functions\n\n    struct TransactionObj{\n        address to;\n        uint amount;\n        string transactionType;\n        bool executed;\n        uint totalNumbersOfSig;\n    }\n    struct SignerList{\n        address id;\n        uint sigWeight;\n    }\n    event TransactionSubmitted(address _sender, uint _amt, address _receiver);\n    event SignerAdded(address _signerAdd, uint _signerWeight);\n    event TransactionAdded(address _adder, uint _amount, address _to);\n    event TransactionSigned(address _signer, uint _txIndex, uint _signerWeight, uint _requiredThreshold);\n    event NewTypeOfTransactionAdded(address _sender, string _txName, uint _requiredThreshold);\n    event revockSignature(address _sender, uint _weightRemove);\n\n    mapping(address => SignerList) AllSigners;\n    mapping(uint => mapping(address => bool)) isSigned; //if Tx is signed\n    mapping(address => bool) addressIsASigner; // Need to get the address specific index numder to work perfectly\n    uint public signerCounter;\n\n    // TransactionObj[] private listOfAllTransactions;\n    //Counter for Transaction\n    uint public txCounter;\n\n\n    modifier isTxSigned(uint _txID){\n        require(!isSigned[_txID][msg.sender], \"Address already Signed Tx\");\n        _;\n    }\n    modifier isAddrASigner(){\n        require(addressIsASigner[msg.sender], \"Not a Signer\");\n        _;\n    }\n\n    modifier TxNotExecuted(uint _txIndex){\n        require(!listOfAllTransactions[_txIndex].executed, \"transaction already submitted\");\n        _;\n    }\n    modifier hasAddrSignedTx(uint _txIndex){\n        require(isSigned[_txIndex][msg.sender], \"You have not signed this transaction\");\n        _;\n    }\n    modifier isTransactionAvailable(uint _txIndex){\n        require(txCounter >= _txIndex && txCounter > 0, \"No Valid Transaction\");\n        _;\n    }\n    //Check if we have a valid transaction\n\n\n    // Contructor takes numbers of address, their weight. We use a pre-defined threshold for all type of transactions\n    // The threshold is the number of signatures required to approve a transaction\n\n    constructor(){\n        // Owner = msg.sender;\n        transactionTypeList[\"deposit\"] = 0;\n        transactionTypeList[\"withdrawal\"] = 80;\n        transactionTypeList[\"transfer\"] = 60;\n        txCounter =0;\n        signerCounter =0;\n    }\n\n    // Need to Restrict the add signer method to only owner\n    // allowing smart contrcat to recieve eth\n\n\n     receive() external payable {}\n\n\n// ===============================================================================\n                // TRANSACTIONS\n// ===============================================================================\n\n\n    // Add a new Transaction for signing\n    function addTransaction(address _to, uint _amt, string memory _transactionType ) public isAddrASigner {\n\n        // modifier to automatically check transaction type\n        listOfAllTransactions[txCounter] = TransactionObj({\n            to: _to,\n            amount:_amt,\n            executed: false,\n            transactionType: _transactionType,\n            totalNumbersOfSig:0\n\n        });\n\n        txCounter++;\n        emit TransactionAdded(msg.sender, _amt, _to);\n    }\n\n    //Method to check if transaction exist and if yes, it returns it threshold\n    // add modiers to check if transaction exist in our list of tx, if not we return an error\n    function getTxWeight(string memory _txName) public view returns (uint){\n        return transactionTypeList[_txName];\n    }\n\n\n    // return a tuple of all availabe transaction and their details including signature\n    function getAllTranactions() public view returns (TransactionObj[] memory){\n        TransactionObj[] memory transactionobj = new TransactionObj[](txCounter);\n        for (uint i = 0; i < txCounter; i++) {\n            TransactionObj storage txobjs = listOfAllTransactions[i];\n            transactionobj[i] = txobjs;\n        }\n        return transactionobj;\n    }\n    //This get transaction by it index number\n    function getTxByID(uint _txID) public view returns(TransactionObj memory) {\n        return listOfAllTransactions[_txID];\n    }\n\n    //This adds a specific new type of transaction type and also the weight threshold required to execute\n    function addTxWithThreshold(string memory _name, uint _weight) public {\n        transactionTypeList[_name]=_weight;\n        emit NewTypeOfTransactionAdded(msg.sender, _name, _weight);\n    }\n\n    function revockSignerSig(uint _txIndex) public isAddrASigner hasAddrSignedTx(_txIndex){\n        TransactionObj storage _tx = listOfAllTransactions[_txIndex];\n        uint addressWeight = AllSigners[msg.sender].sigWeight;\n        uint newTxvalue = _tx.totalNumbersOfSig - addressWeight;\n        _tx.totalNumbersOfSig = newTxvalue;\n        isSigned[_txIndex][msg.sender] = false;\n\n        emit revockSignature(msg.sender, addressWeight);\n    }\n\n// ===============================================================================\n            // SIGNERS\n// ===============================================================================\n\n      //This add a specific address and their weight\n    function addSignerWithWeight(address _signerAdd, uint _weight) public onlyOwner {\n        AllSigners[_signerAdd] = SignerList({ id:_signerAdd, sigWeight: _weight});\n        addressIsASigner[_signerAdd] = true;\n        signerCounter++;\n        emit SignerAdded(_signerAdd, _weight);\n    }\n\n\n    //get signer by their index and return their address and weight\n    function getSignerByAddress(address _address )public view returns (SignerList memory){\n        return AllSigners[_address];\n    }\n\n\n    //this should all address to sign transaction\n    function signTransaction(uint _txId) public isAddrASigner isTransactionAvailable(_txId) isTxSigned (_txId) {\n        TransactionObj storage txToSign = listOfAllTransactions[_txId];\n        address _signerAddress = msg.sender;\n        SignerList memory _signer = AllSigners[_signerAddress];\n        txToSign.totalNumbersOfSig += _signer.sigWeight;\n        isSigned[_txId][msg.sender] = true;\n        uint txrequiredThreashold = transactionTypeList[txToSign.transactionType];\n\n        emit TransactionSigned(msg.sender, _txId, _signer.sigWeight, txrequiredThreashold);\n\n    }\n\n    // //this should all users to submit transaction if weidgt meets the threshold of the transaction type\n    function submitTransaction(uint _txIndex) public isAddrASigner isTransactionAvailable(_txIndex) TxNotExecuted(_txIndex) {\n        TransactionObj storage _txToSubmit = listOfAllTransactions[_txIndex];\n        uint _txThreshold = transactionTypeList[_txToSubmit.transactionType];\n        require(_txToSubmit.totalNumbersOfSig >= _txThreshold, \"need more signer to sign transaction before execution\");\n        address payable recipientAddres = payable(_txToSubmit.to);\n        recipientAddres.transfer(_txToSubmit.amount);\n        _txToSubmit.executed = true;\n        emit TransactionSubmitted(address(this), _txToSubmit.amount, recipientAddres);\n    }\n}\n\n\n",
  "sourcePath": "/Users/afolabi/blockchaindev/blockchain-developer-bootcamp-final-project/contracts/multisigwallet.sol",
  "compiler": {
    "name": "solc",
    "version": "0.8.13+commit.abaa5c0e.Emscripten.clang"
  },
  "schemaVersion": "3.4.7",
  "updatedAt": "2022-04-17T03:33:22.637Z",
  "networkType": "ethereum",
  "devdoc": {
    "kind": "dev",
    "methods": {
      "owner()": {
        "details": "Returns the address of the current owner."
      },
      "renounceOwnership()": {
        "details": "Leaves the contract without owner. It will not be possible to call `onlyOwner` functions anymore. Can only be called by the current owner. NOTE: Renouncing ownership will leave the contract without an owner, thereby removing any functionality that is only available to the owner."
      },
      "transferOwnership(address)": {
        "details": "Transfers ownership of the contract to a new account (`newOwner`). Can only be called by the current owner."
      }
    },
    "version": 1
  },
  "userdoc": {
    "kind": "user",
    "methods": {},
    "version": 1
  }
}